{
  "_format": "hh-sol-artifact-1",
  "contractName": "lendingProtocol",
  "sourceName": "contracts/src/lendingProtocol.sol",
  "abi": [
    {
      "inputs": [],
      "stateMutability": "nonpayable",
      "type": "constructor"
    },
    {
      "inputs": [],
      "name": "AccessControlBadConfirmation",
      "type": "error"
    },
    {
      "inputs": [
        {
          "internalType": "address",
          "name": "account",
          "type": "address"
        },
        {
          "internalType": "bytes32",
          "name": "neededRole",
          "type": "bytes32"
        }
      ],
      "name": "AccessControlUnauthorizedAccount",
      "type": "error"
    },
    {
      "inputs": [
        {
          "internalType": "address",
          "name": "target",
          "type": "address"
        }
      ],
      "name": "AddressEmptyCode",
      "type": "error"
    },
    {
      "inputs": [
        {
          "internalType": "address",
          "name": "sender",
          "type": "address"
        },
        {
          "internalType": "uint256",
          "name": "balance",
          "type": "uint256"
        },
        {
          "internalType": "uint256",
          "name": "needed",
          "type": "uint256"
        },
        {
          "internalType": "uint256",
          "name": "tokenId",
          "type": "uint256"
        }
      ],
      "name": "ERC1155InsufficientBalance",
      "type": "error"
    },
    {
      "inputs": [
        {
          "internalType": "address",
          "name": "approver",
          "type": "address"
        }
      ],
      "name": "ERC1155InvalidApprover",
      "type": "error"
    },
    {
      "inputs": [
        {
          "internalType": "uint256",
          "name": "idsLength",
          "type": "uint256"
        },
        {
          "internalType": "uint256",
          "name": "valuesLength",
          "type": "uint256"
        }
      ],
      "name": "ERC1155InvalidArrayLength",
      "type": "error"
    },
    {
      "inputs": [
        {
          "internalType": "address",
          "name": "operator",
          "type": "address"
        }
      ],
      "name": "ERC1155InvalidOperator",
      "type": "error"
    },
    {
      "inputs": [
        {
          "internalType": "address",
          "name": "receiver",
          "type": "address"
        }
      ],
      "name": "ERC1155InvalidReceiver",
      "type": "error"
    },
    {
      "inputs": [
        {
          "internalType": "address",
          "name": "sender",
          "type": "address"
        }
      ],
      "name": "ERC1155InvalidSender",
      "type": "error"
    },
    {
      "inputs": [
        {
          "internalType": "address",
          "name": "operator",
          "type": "address"
        },
        {
          "internalType": "address",
          "name": "owner",
          "type": "address"
        }
      ],
      "name": "ERC1155MissingApprovalForAll",
      "type": "error"
    },
    {
      "inputs": [
        {
          "internalType": "address",
          "name": "implementation",
          "type": "address"
        }
      ],
      "name": "ERC1967InvalidImplementation",
      "type": "error"
    },
    {
      "inputs": [],
      "name": "ERC1967NonPayable",
      "type": "error"
    },
    {
      "inputs": [],
      "name": "FailedCall",
      "type": "error"
    },
    {
      "inputs": [],
      "name": "InvalidInitialization",
      "type": "error"
    },
    {
      "inputs": [],
      "name": "NotInitializing",
      "type": "error"
    },
    {
      "inputs": [
        {
          "internalType": "address",
          "name": "token",
          "type": "address"
        }
      ],
      "name": "SafeERC20FailedOperation",
      "type": "error"
    },
    {
      "inputs": [],
      "name": "UUPSUnauthorizedCallContext",
      "type": "error"
    },
    {
      "inputs": [
        {
          "internalType": "bytes32",
          "name": "slot",
          "type": "bytes32"
        }
      ],
      "name": "UUPSUnsupportedProxiableUUID",
      "type": "error"
    },
    {
      "anonymous": false,
      "inputs": [
        {
          "indexed": true,
          "internalType": "address",
          "name": "account",
          "type": "address"
        },
        {
          "indexed": true,
          "internalType": "address",
          "name": "operator",
          "type": "address"
        },
        {
          "indexed": false,
          "internalType": "bool",
          "name": "approved",
          "type": "bool"
        }
      ],
      "name": "ApprovalForAll",
      "type": "event"
    },
    {
      "anonymous": false,
      "inputs": [],
      "name": "EIP712DomainChanged",
      "type": "event"
    },
    {
      "anonymous": false,
      "inputs": [
        {
          "indexed": false,
          "internalType": "uint64",
          "name": "version",
          "type": "uint64"
        }
      ],
      "name": "Initialized",
      "type": "event"
    },
    {
      "anonymous": false,
      "inputs": [
        {
          "indexed": true,
          "internalType": "uint256",
          "name": "loanId",
          "type": "uint256"
        }
      ],
      "name": "LoanCancelled",
      "type": "event"
    },
    {
      "anonymous": false,
      "inputs": [
        {
          "indexed": true,
          "internalType": "uint256",
          "name": "loanId",
          "type": "uint256"
        },
        {
          "indexed": true,
          "internalType": "address",
          "name": "lender",
          "type": "address"
        }
      ],
      "name": "LoanFunded",
      "type": "event"
    },
    {
      "anonymous": false,
      "inputs": [
        {
          "indexed": true,
          "internalType": "uint256",
          "name": "loanId",
          "type": "uint256"
        }
      ],
      "name": "LoanLiquidated",
      "type": "event"
    },
    {
      "anonymous": false,
      "inputs": [
        {
          "indexed": true,
          "internalType": "uint256",
          "name": "loanId",
          "type": "uint256"
        },
        {
          "indexed": true,
          "internalType": "address",
          "name": "redeemer",
          "type": "address"
        },
        {
          "indexed": false,
          "internalType": "uint256",
          "name": "amount",
          "type": "uint256"
        }
      ],
      "name": "LoanNoteRedeemed",
      "type": "event"
    },
    {
      "anonymous": false,
      "inputs": [
        {
          "indexed": true,
          "internalType": "uint256",
          "name": "loanId",
          "type": "uint256"
        }
      ],
      "name": "LoanRepaid",
      "type": "event"
    },
    {
      "anonymous": false,
      "inputs": [
        {
          "indexed": true,
          "internalType": "uint256",
          "name": "loanId",
          "type": "uint256"
        },
        {
          "indexed": true,
          "internalType": "address",
          "name": "borrower",
          "type": "address"
        }
      ],
      "name": "LoanRequested",
      "type": "event"
    },
    {
      "anonymous": false,
      "inputs": [
        {
          "indexed": true,
          "internalType": "bytes32",
          "name": "role",
          "type": "bytes32"
        },
        {
          "indexed": true,
          "internalType": "bytes32",
          "name": "previousAdminRole",
          "type": "bytes32"
        },
        {
          "indexed": true,
          "internalType": "bytes32",
          "name": "newAdminRole",
          "type": "bytes32"
        }
      ],
      "name": "RoleAdminChanged",
      "type": "event"
    },
    {
      "anonymous": false,
      "inputs": [
        {
          "indexed": true,
          "internalType": "bytes32",
          "name": "role",
          "type": "bytes32"
        },
        {
          "indexed": true,
          "internalType": "address",
          "name": "account",
          "type": "address"
        },
        {
          "indexed": true,
          "internalType": "address",
          "name": "sender",
          "type": "address"
        }
      ],
      "name": "RoleGranted",
      "type": "event"
    },
    {
      "anonymous": false,
      "inputs": [
        {
          "indexed": true,
          "internalType": "bytes32",
          "name": "role",
          "type": "bytes32"
        },
        {
          "indexed": true,
          "internalType": "address",
          "name": "account",
          "type": "address"
        },
        {
          "indexed": true,
          "internalType": "address",
          "name": "sender",
          "type": "address"
        }
      ],
      "name": "RoleRevoked",
      "type": "event"
    },
    {
      "anonymous": false,
      "inputs": [
        {
          "indexed": true,
          "internalType": "address",
          "name": "operator",
          "type": "address"
        },
        {
          "indexed": true,
          "internalType": "address",
          "name": "from",
          "type": "address"
        },
        {
          "indexed": true,
          "internalType": "address",
          "name": "to",
          "type": "address"
        },
        {
          "indexed": false,
          "internalType": "uint256[]",
          "name": "ids",
          "type": "uint256[]"
        },
        {
          "indexed": false,
          "internalType": "uint256[]",
          "name": "values",
          "type": "uint256[]"
        }
      ],
      "name": "TransferBatch",
      "type": "event"
    },
    {
      "anonymous": false,
      "inputs": [
        {
          "indexed": true,
          "internalType": "address",
          "name": "operator",
          "type": "address"
        },
        {
          "indexed": true,
          "internalType": "address",
          "name": "from",
          "type": "address"
        },
        {
          "indexed": true,
          "internalType": "address",
          "name": "to",
          "type": "address"
        },
        {
          "indexed": false,
          "internalType": "uint256",
          "name": "id",
          "type": "uint256"
        },
        {
          "indexed": false,
          "internalType": "uint256",
          "name": "value",
          "type": "uint256"
        }
      ],
      "name": "TransferSingle",
      "type": "event"
    },
    {
      "anonymous": false,
      "inputs": [
        {
          "indexed": false,
          "internalType": "string",
          "name": "value",
          "type": "string"
        },
        {
          "indexed": true,
          "internalType": "uint256",
          "name": "id",
          "type": "uint256"
        }
      ],
      "name": "URI",
      "type": "event"
    },
    {
      "anonymous": false,
      "inputs": [
        {
          "indexed": true,
          "internalType": "address",
          "name": "implementation",
          "type": "address"
        }
      ],
      "name": "Upgraded",
      "type": "event"
    },
    {
      "inputs": [],
      "name": "DEFAULT_ADMIN_ROLE",
      "outputs": [
        {
          "internalType": "bytes32",
          "name": "",
          "type": "bytes32"
        }
      ],
      "stateMutability": "view",
      "type": "function"
    },
    {
      "inputs": [],
      "name": "MINTER_ROLE",
      "outputs": [
        {
          "internalType": "bytes32",
          "name": "",
          "type": "bytes32"
        }
      ],
      "stateMutability": "view",
      "type": "function"
    },
    {
      "inputs": [],
      "name": "UPGRADER_ROLE",
      "outputs": [
        {
          "internalType": "bytes32",
          "name": "",
          "type": "bytes32"
        }
      ],
      "stateMutability": "view",
      "type": "function"
    },
    {
      "inputs": [],
      "name": "UPGRADE_INTERFACE_VERSION",
      "outputs": [
        {
          "internalType": "string",
          "name": "",
          "type": "string"
        }
      ],
      "stateMutability": "view",
      "type": "function"
    },
    {
      "inputs": [
        {
          "internalType": "address",
          "name": "",
          "type": "address"
        }
      ],
      "name": "acceptedStablecoins",
      "outputs": [
        {
          "internalType": "bool",
          "name": "",
          "type": "bool"
        }
      ],
      "stateMutability": "view",
      "type": "function"
    },
    {
      "inputs": [
        {
          "internalType": "address",
          "name": "account",
          "type": "address"
        },
        {
          "internalType": "uint256",
          "name": "id",
          "type": "uint256"
        }
      ],
      "name": "balanceOf",
      "outputs": [
        {
          "internalType": "uint256",
          "name": "",
          "type": "uint256"
        }
      ],
      "stateMutability": "view",
      "type": "function"
    },
    {
      "inputs": [
        {
          "internalType": "address[]",
          "name": "accounts",
          "type": "address[]"
        },
        {
          "internalType": "uint256[]",
          "name": "ids",
          "type": "uint256[]"
        }
      ],
      "name": "balanceOfBatch",
      "outputs": [
        {
          "internalType": "uint256[]",
          "name": "",
          "type": "uint256[]"
        }
      ],
      "stateMutability": "view",
      "type": "function"
    },
    {
      "inputs": [
        {
          "internalType": "uint256",
          "name": "loanId",
          "type": "uint256"
        }
      ],
      "name": "cancelLoanRequest",
      "outputs": [],
      "stateMutability": "nonpayable",
      "type": "function"
    },
    {
      "inputs": [],
      "name": "eip712Domain",
      "outputs": [
        {
          "internalType": "bytes1",
          "name": "fields",
          "type": "bytes1"
        },
        {
          "internalType": "string",
          "name": "name",
          "type": "string"
        },
        {
          "internalType": "string",
          "name": "version",
          "type": "string"
        },
        {
          "internalType": "uint256",
          "name": "chainId",
          "type": "uint256"
        },
        {
          "internalType": "address",
          "name": "verifyingContract",
          "type": "address"
        },
        {
          "internalType": "bytes32",
          "name": "salt",
          "type": "bytes32"
        },
        {
          "internalType": "uint256[]",
          "name": "extensions",
          "type": "uint256[]"
        }
      ],
      "stateMutability": "view",
      "type": "function"
    },
    {
      "inputs": [
        {
          "internalType": "uint256",
          "name": "loanId",
          "type": "uint256"
        }
      ],
      "name": "fundLoan",
      "outputs": [],
      "stateMutability": "nonpayable",
      "type": "function"
    },
    {
      "inputs": [
        {
          "internalType": "uint256",
          "name": "loanId",
          "type": "uint256"
        },
        {
          "components": [
            {
              "internalType": "enum ILendingProtocol.AssetType",
              "name": "assetType",
              "type": "uint8"
            },
            {
              "internalType": "uint256",
              "name": "value",
              "type": "uint256"
            },
            {
              "internalType": "uint256",
              "name": "deadline",
              "type": "uint256"
            },
            {
              "internalType": "uint8",
              "name": "v",
              "type": "uint8"
            },
            {
              "internalType": "bytes32",
              "name": "r",
              "type": "bytes32"
            },
            {
              "internalType": "bytes32",
              "name": "s",
              "type": "bytes32"
            }
          ],
          "internalType": "struct ILendingProtocol.PermitData",
          "name": "permit",
          "type": "tuple"
        }
      ],
      "name": "fundLoanWithPermit",
      "outputs": [],
      "stateMutability": "nonpayable",
      "type": "function"
    },
    {
      "inputs": [
        {
          "internalType": "uint256",
          "name": "loanId",
          "type": "uint256"
        }
      ],
      "name": "getLoanDetails",
      "outputs": [
        {
          "components": [
            {
              "internalType": "uint256",
              "name": "loanId",
              "type": "uint256"
            },
            {
              "internalType": "address",
              "name": "borrower",
              "type": "address"
            },
            {
              "internalType": "address",
              "name": "stablecoin",
              "type": "address"
            },
            {
              "internalType": "uint256",
              "name": "loanAmount",
              "type": "uint256"
            },
            {
              "internalType": "uint256",
              "name": "interestRate",
              "type": "uint256"
            },
            {
              "internalType": "uint256",
              "name": "duration",
              "type": "uint256"
            },
            {
              "internalType": "uint256",
              "name": "startTime",
              "type": "uint256"
            },
            {
              "internalType": "enum ILendingProtocol.LoanStatus",
              "name": "status",
              "type": "uint8"
            },
            {
              "components": [
                {
                  "internalType": "enum ILendingProtocol.AssetType",
                  "name": "assetType",
                  "type": "uint8"
                },
                {
                  "internalType": "address",
                  "name": "assetAddress",
                  "type": "address"
                },
                {
                  "internalType": "uint256",
                  "name": "tokenId",
                  "type": "uint256"
                },
                {
                  "internalType": "uint256",
                  "name": "amount",
                  "type": "uint256"
                }
              ],
              "internalType": "struct ILendingProtocol.CollateralAsset[]",
              "name": "collateralAssets",
              "type": "tuple[]"
            },
            {
              "internalType": "address",
              "name": "lender",
              "type": "address"
            },
            {
              "internalType": "uint256",
              "name": "repaymentAmount",
              "type": "uint256"
            },
            {
              "internalType": "bool",
              "name": "withdrawn",
              "type": "bool"
            },
            {
              "internalType": "uint256",
              "name": "inquiryDeadline",
              "type": "uint256"
            }
          ],
          "internalType": "struct ILendingProtocol.Loan",
          "name": "",
          "type": "tuple"
        }
      ],
      "stateMutability": "view",
      "type": "function"
    },
    {
      "inputs": [
        {
          "internalType": "bytes32",
          "name": "role",
          "type": "bytes32"
        }
      ],
      "name": "getRoleAdmin",
      "outputs": [
        {
          "internalType": "bytes32",
          "name": "",
          "type": "bytes32"
        }
      ],
      "stateMutability": "view",
      "type": "function"
    },
    {
      "inputs": [
        {
          "internalType": "bytes32",
          "name": "role",
          "type": "bytes32"
        },
        {
          "internalType": "address",
          "name": "account",
          "type": "address"
        }
      ],
      "name": "grantRole",
      "outputs": [],
      "stateMutability": "nonpayable",
      "type": "function"
    },
    {
      "inputs": [
        {
          "internalType": "bytes32",
          "name": "role",
          "type": "bytes32"
        },
        {
          "internalType": "address",
          "name": "account",
          "type": "address"
        }
      ],
      "name": "hasRole",
      "outputs": [
        {
          "internalType": "bool",
          "name": "",
          "type": "bool"
        }
      ],
      "stateMutability": "view",
      "type": "function"
    },
    {
      "inputs": [
        {
          "internalType": "string",
          "name": "_uri",
          "type": "string"
        },
        {
          "internalType": "address",
          "name": "_admin",
          "type": "address"
        }
      ],
      "name": "initialize",
      "outputs": [],
      "stateMutability": "nonpayable",
      "type": "function"
    },
    {
      "inputs": [
        {
          "internalType": "address",
          "name": "account",
          "type": "address"
        },
        {
          "internalType": "address",
          "name": "operator",
          "type": "address"
        }
      ],
      "name": "isApprovedForAll",
      "outputs": [
        {
          "internalType": "bool",
          "name": "",
          "type": "bool"
        }
      ],
      "stateMutability": "view",
      "type": "function"
    },
    {
      "inputs": [
        {
          "internalType": "address",
          "name": "",
          "type": "address"
        }
      ],
      "name": "lenderWhitelist",
      "outputs": [
        {
          "internalType": "bool",
          "name": "",
          "type": "bool"
        }
      ],
      "stateMutability": "view",
      "type": "function"
    },
    {
      "inputs": [
        {
          "internalType": "uint256",
          "name": "loanId",
          "type": "uint256"
        }
      ],
      "name": "liquidateLoan",
      "outputs": [],
      "stateMutability": "nonpayable",
      "type": "function"
    },
    {
      "inputs": [
        {
          "internalType": "uint256",
          "name": "loanId",
          "type": "uint256"
        },
        {
          "components": [
            {
              "internalType": "enum ILendingProtocol.AssetType",
              "name": "assetType",
              "type": "uint8"
            },
            {
              "internalType": "uint256",
              "name": "value",
              "type": "uint256"
            },
            {
              "internalType": "uint256",
              "name": "deadline",
              "type": "uint256"
            },
            {
              "internalType": "uint8",
              "name": "v",
              "type": "uint8"
            },
            {
              "internalType": "bytes32",
              "name": "r",
              "type": "bytes32"
            },
            {
              "internalType": "bytes32",
              "name": "s",
              "type": "bytes32"
            }
          ],
          "internalType": "struct ILendingProtocol.PermitData",
          "name": "permit",
          "type": "tuple"
        }
      ],
      "name": "liquidateLoanWithPermit",
      "outputs": [],
      "stateMutability": "nonpayable",
      "type": "function"
    },
    {
      "inputs": [
        {
          "internalType": "uint256",
          "name": "",
          "type": "uint256"
        }
      ],
      "name": "loans",
      "outputs": [
        {
          "internalType": "uint256",
          "name": "loanId",
          "type": "uint256"
        },
        {
          "internalType": "address",
          "name": "borrower",
          "type": "address"
        },
        {
          "internalType": "address",
          "name": "stablecoin",
          "type": "address"
        },
        {
          "internalType": "uint256",
          "name": "loanAmount",
          "type": "uint256"
        },
        {
          "internalType": "uint256",
          "name": "interestRate",
          "type": "uint256"
        },
        {
          "internalType": "uint256",
          "name": "duration",
          "type": "uint256"
        },
        {
          "internalType": "uint256",
          "name": "startTime",
          "type": "uint256"
        },
        {
          "internalType": "enum ILendingProtocol.LoanStatus",
          "name": "status",
          "type": "uint8"
        },
        {
          "internalType": "address",
          "name": "lender",
          "type": "address"
        },
        {
          "internalType": "uint256",
          "name": "repaymentAmount",
          "type": "uint256"
        },
        {
          "internalType": "bool",
          "name": "withdrawn",
          "type": "bool"
        },
        {
          "internalType": "uint256",
          "name": "inquiryDeadline",
          "type": "uint256"
        }
      ],
      "stateMutability": "view",
      "type": "function"
    },
    {
      "inputs": [],
      "name": "nextLoanId",
      "outputs": [
        {
          "internalType": "uint256",
          "name": "",
          "type": "uint256"
        }
      ],
      "stateMutability": "view",
      "type": "function"
    },
    {
      "inputs": [],
      "name": "proxiableUUID",
      "outputs": [
        {
          "internalType": "bytes32",
          "name": "",
          "type": "bytes32"
        }
      ],
      "stateMutability": "view",
      "type": "function"
    },
    {
      "inputs": [
        {
          "internalType": "uint256",
          "name": "loanId",
          "type": "uint256"
        },
        {
          "internalType": "uint256",
          "name": "amount",
          "type": "uint256"
        }
      ],
      "name": "redeemLoanNote",
      "outputs": [],
      "stateMutability": "nonpayable",
      "type": "function"
    },
    {
      "inputs": [
        {
          "internalType": "bytes32",
          "name": "role",
          "type": "bytes32"
        },
        {
          "internalType": "address",
          "name": "callerConfirmation",
          "type": "address"
        }
      ],
      "name": "renounceRole",
      "outputs": [],
      "stateMutability": "nonpayable",
      "type": "function"
    },
    {
      "inputs": [
        {
          "internalType": "uint256",
          "name": "loanId",
          "type": "uint256"
        }
      ],
      "name": "repayLoan",
      "outputs": [],
      "stateMutability": "nonpayable",
      "type": "function"
    },
    {
      "inputs": [
        {
          "internalType": "address",
          "name": "stablecoin",
          "type": "address"
        },
        {
          "internalType": "uint256",
          "name": "loanAmount",
          "type": "uint256"
        },
        {
          "internalType": "uint256",
          "name": "interestRate",
          "type": "uint256"
        },
        {
          "internalType": "uint256",
          "name": "duration",
          "type": "uint256"
        },
        {
          "internalType": "uint256",
          "name": "inquiryDuration",
          "type": "uint256"
        },
        {
          "components": [
            {
              "internalType": "enum ILendingProtocol.AssetType",
              "name": "assetType",
              "type": "uint8"
            },
            {
              "internalType": "address",
              "name": "assetAddress",
              "type": "address"
            },
            {
              "internalType": "uint256",
              "name": "tokenId",
              "type": "uint256"
            },
            {
              "internalType": "uint256",
              "name": "amount",
              "type": "uint256"
            }
          ],
          "internalType": "struct ILendingProtocol.CollateralAsset[]",
          "name": "collateralAssets",
          "type": "tuple[]"
        }
      ],
      "name": "requestLoan",
      "outputs": [],
      "stateMutability": "nonpayable",
      "type": "function"
    },
    {
      "inputs": [
        {
          "internalType": "address",
          "name": "stablecoin",
          "type": "address"
        },
        {
          "internalType": "uint256",
          "name": "loanAmount",
          "type": "uint256"
        },
        {
          "internalType": "uint256",
          "name": "interestRate",
          "type": "uint256"
        },
        {
          "internalType": "uint256",
          "name": "duration",
          "type": "uint256"
        },
        {
          "internalType": "uint256",
          "name": "inquiryDuration",
          "type": "uint256"
        },
        {
          "components": [
            {
              "internalType": "enum ILendingProtocol.AssetType",
              "name": "assetType",
              "type": "uint8"
            },
            {
              "internalType": "address",
              "name": "assetAddress",
              "type": "address"
            },
            {
              "internalType": "uint256",
              "name": "tokenId",
              "type": "uint256"
            },
            {
              "internalType": "uint256",
              "name": "amount",
              "type": "uint256"
            }
          ],
          "internalType": "struct ILendingProtocol.CollateralAsset[]",
          "name": "collateralAssets",
          "type": "tuple[]"
        },
        {
          "components": [
            {
              "internalType": "enum ILendingProtocol.AssetType",
              "name": "assetType",
              "type": "uint8"
            },
            {
              "internalType": "uint256",
              "name": "value",
              "type": "uint256"
            },
            {
              "internalType": "uint256",
              "name": "deadline",
              "type": "uint256"
            },
            {
              "internalType": "uint8",
              "name": "v",
              "type": "uint8"
            },
            {
              "internalType": "bytes32",
              "name": "r",
              "type": "bytes32"
            },
            {
              "internalType": "bytes32",
              "name": "s",
              "type": "bytes32"
            }
          ],
          "internalType": "struct ILendingProtocol.PermitData[]",
          "name": "permits",
          "type": "tuple[]"
        }
      ],
      "name": "requestLoanWithPermit",
      "outputs": [],
      "stateMutability": "nonpayable",
      "type": "function"
    },
    {
      "inputs": [
        {
          "internalType": "bytes32",
          "name": "role",
          "type": "bytes32"
        },
        {
          "internalType": "address",
          "name": "account",
          "type": "address"
        }
      ],
      "name": "revokeRole",
      "outputs": [],
      "stateMutability": "nonpayable",
      "type": "function"
    },
    {
      "inputs": [
        {
          "internalType": "address",
          "name": "from",
          "type": "address"
        },
        {
          "internalType": "address",
          "name": "to",
          "type": "address"
        },
        {
          "internalType": "uint256[]",
          "name": "ids",
          "type": "uint256[]"
        },
        {
          "internalType": "uint256[]",
          "name": "values",
          "type": "uint256[]"
        },
        {
          "internalType": "bytes",
          "name": "data",
          "type": "bytes"
        }
      ],
      "name": "safeBatchTransferFrom",
      "outputs": [],
      "stateMutability": "nonpayable",
      "type": "function"
    },
    {
      "inputs": [
        {
          "internalType": "address",
          "name": "from",
          "type": "address"
        },
        {
          "internalType": "address",
          "name": "to",
          "type": "address"
        },
        {
          "internalType": "uint256",
          "name": "id",
          "type": "uint256"
        },
        {
          "internalType": "uint256",
          "name": "value",
          "type": "uint256"
        },
        {
          "internalType": "bytes",
          "name": "data",
          "type": "bytes"
        }
      ],
      "name": "safeTransferFrom",
      "outputs": [],
      "stateMutability": "nonpayable",
      "type": "function"
    },
    {
      "inputs": [
        {
          "internalType": "address",
          "name": "token",
          "type": "address"
        },
        {
          "internalType": "bool",
          "name": "accepted",
          "type": "bool"
        }
      ],
      "name": "setAcceptedStablecoin",
      "outputs": [],
      "stateMutability": "nonpayable",
      "type": "function"
    },
    {
      "inputs": [
        {
          "internalType": "address",
          "name": "operator",
          "type": "address"
        },
        {
          "internalType": "bool",
          "name": "approved",
          "type": "bool"
        }
      ],
      "name": "setApprovalForAll",
      "outputs": [],
      "stateMutability": "nonpayable",
      "type": "function"
    },
    {
      "inputs": [
        {
          "internalType": "address",
          "name": "lender",
          "type": "address"
        },
        {
          "internalType": "bool",
          "name": "whitelisted",
          "type": "bool"
        }
      ],
      "name": "setLenderWhitelist",
      "outputs": [],
      "stateMutability": "nonpayable",
      "type": "function"
    },
    {
      "inputs": [
        {
          "internalType": "uint256",
          "name": "_tokenId",
          "type": "uint256"
        },
        {
          "internalType": "string",
          "name": "_uri",
          "type": "string"
        }
      ],
      "name": "setTokenURI",
      "outputs": [],
      "stateMutability": "nonpayable",
      "type": "function"
    },
    {
      "inputs": [
        {
          "internalType": "bytes4",
          "name": "interfaceId",
          "type": "bytes4"
        }
      ],
      "name": "supportsInterface",
      "outputs": [
        {
          "internalType": "bool",
          "name": "",
          "type": "bool"
        }
      ],
      "stateMutability": "view",
      "type": "function"
    },
    {
      "inputs": [
        {
          "internalType": "uint256",
          "name": "_tokenId",
          "type": "uint256"
        }
      ],
      "name": "tokenURI",
      "outputs": [
        {
          "internalType": "string",
          "name": "",
          "type": "string"
        }
      ],
      "stateMutability": "view",
      "type": "function"
    },
    {
      "inputs": [
        {
          "internalType": "address",
          "name": "newImplementation",
          "type": "address"
        },
        {
          "internalType": "bytes",
          "name": "data",
          "type": "bytes"
        }
      ],
      "name": "upgradeToAndCall",
      "outputs": [],
      "stateMutability": "payable",
      "type": "function"
    },
    {
      "inputs": [
        {
          "internalType": "uint256",
          "name": "",
          "type": "uint256"
        }
      ],
      "name": "uri",
      "outputs": [
        {
          "internalType": "string",
          "name": "",
          "type": "string"
        }
      ],
      "stateMutability": "view",
      "type": "function"
    }
  ],
  "bytecode": "0x60a060405230608052348015601357600080fd5b50608051614d5f61003d60003960008181612d8101528181612daa0152612f0f0152614d5f6000f3fe60806040526004361061022f5760003560e01c806387c514591161012e578063ccdd9f5d116100ab578063e1ec3c681161006f578063e1ec3c68146106e0578063e985e9c514610787578063f10714da146107a7578063f242432a146107c7578063f72c0d8b146107e757600080fd5b8063ccdd9f5d1461061c578063cd1c38c11461063c578063d53913931461066c578063d547741f146106a0578063e1c94ff5146106c057600080fd5b8063a22cb465116100f2578063a22cb4651461056b578063ab7b1c891461058b578063ad3cb1cc146105ab578063c16d700f146105dc578063c87b56dd146105fc57600080fd5b806387c51459146104e057806391d14854146104f65780639967f365146105165780639e1a064214610536578063a217fddf1461055657600080fd5b806336568abe116101bc57806361cd59221161018057806361cd59221461042b57806366877b8d1461044b5780637ab4339d14610478578063846b909a1461049857806384b0196e146104b857600080fd5b806336568abe146103965780634e1273f4146103b65780634f1ef286146103e357806352d1902d146103f65780635a6803671461040b57600080fd5b806319fee2561161020357806319fee256146102e65780631a7be4a114610316578063248a9ca3146103365780632eb2c2d6146103565780632f2ff15d1461037657600080fd5b8062fdd58e1461023457806301ffc9a7146102675780630e89341c14610297578063162094c4146102c4575b600080fd5b34801561024057600080fd5b5061025461024f366004613d9a565b61081b565b6040519081526020015b60405180910390f35b34801561027357600080fd5b50610287610282366004613ddc565b610852565b604051901515815260200161025e565b3480156102a357600080fd5b506102b76102b2366004613df9565b61085d565b60405161025e9190613e62565b3480156102d057600080fd5b506102e46102df366004613f31565b610922565b005b3480156102f257600080fd5b50610287610301366004613f77565b60026020526000908152604090205460ff1681565b34801561032257600080fd5b506102e4610331366004613f94565b61096f565b34801561034257600080fd5b50610254610351366004613df9565b610cd9565b34801561036257600080fd5b506102e461037136600461405c565b610cfb565b34801561038257600080fd5b506102e4610391366004614113565b610d62565b3480156103a257600080fd5b506102e46103b1366004614113565b610d7e565b3480156103c257600080fd5b506103d66103d1366004614143565b610db1565b60405161025e919061423e565b6102e46103f1366004614251565b610e7d565b34801561040257600080fd5b50610254610e9c565b34801561041757600080fd5b506102e4610426366004613df9565b610eb9565b34801561043757600080fd5b506102e4610446366004613f94565b6111ca565b34801561045757600080fd5b5061046b610466366004613df9565b611408565b60405161025e9190614323565b34801561048457600080fd5b506102e4610493366004614410565b6115c0565b3480156104a457600080fd5b506102e46104b3366004613df9565b611787565b3480156104c457600080fd5b506104cd611916565b60405161025e9796959493929190614456565b3480156104ec57600080fd5b5061025460005481565b34801561050257600080fd5b50610287610511366004614113565b6119c2565b34801561052257600080fd5b506102e46105313660046144c6565b6119fa565b34801561054257600080fd5b506102e4610551366004614544565b611a4c565b34801561056257600080fd5b50610254600081565b34801561057757600080fd5b506102e46105863660046144c6565b611dac565b34801561059757600080fd5b506102e46105a6366004613df9565b611db7565b3480156105b757600080fd5b506102b7604051806040016040528060058152602001640352e302e360dc1b81525081565b3480156105e857600080fd5b506102e46105f73660046144c6565b6120c3565b34801561060857600080fd5b506102b7610617366004613df9565b612115565b34801561062857600080fd5b506102e4610637366004613df9565b6121b7565b34801561064857600080fd5b50610287610657366004613f77565b60036020526000908152604090205460ff1681565b34801561067857600080fd5b506102547f9f2df0fed2c77648de5860a4cc508cd0818c85b8b8a1ab4ceeef8d981c8956a681565b3480156106ac57600080fd5b506102e46106bb366004614113565b6124ca565b3480156106cc57600080fd5b506102e46106db3660046145c0565b6124e6565b3480156106ec57600080fd5b5061076f6106fb366004613df9565b60016020819052600091825260409091208054918101546002820154600383015460048401546005850154600686015460078701546009880154600a890154600b8a0154600c909a01546001600160a01b03998a169a988a1699979896979596949560ff948516959316939192909116908c565b60405161025e9c9b9a9998979695949392919061469f565b34801561079357600080fd5b506102876107a236600461471e565b612939565b3480156107b357600080fd5b506102e46107c236600461474c565b612986565b3480156107d357600080fd5b506102e46107e236600461476e565b612ad9565b3480156107f357600080fd5b506102547f189ab7a9244df0848122154315af71fe140f3db0fe014031783b0946b8c9d2e381565b6000818152600080516020614cea833981519152602090815260408083206001600160a01b03861684529091529020545b92915050565b600061084c82612b38565b7f88be536d5240c274a3b1d3a1be54482fd9caa294f08c62a7cde569f49a3c45028054606091600080516020614cea8339815191529161089c906147ca565b80601f01602080910402602001604051908101604052809291908181526020018280546108c8906147ca565b80156109155780601f106108ea57610100808354040283529160200191610915565b820191906000526020600020905b8154815290600101906020018083116108f857829003601f168201915b5050505050915050919050565b61092d6000336119c2565b6109525760405162461bcd60e51b815260040161094990614804565b60405180910390fd5b600082815260046020526040902061096a8282614882565b505050565b600082815260016020819052604090912090600782015460ff16600381111561099a5761099a61428a565b146109d95760405162461bcd60e51b815260206004820152600f60248201526e4c6f616e206e6f742061637469766560881b6044820152606401610949565b806005015481600601546109ed9190614956565b6109fa906203f480614956565b4211610a415760405162461bcd60e51b8152602060048201526016602482015275131bd85b881b9bdd08191959985d5b1d1959081e595d60521b6044820152606401610949565b60098101546001600160a01b03163314610a6d5760405162461bcd60e51b815260040161094990614969565b60028101546001600160a01b031663d505accf333060208601356040870135610a9c6080890160608a01614991565b88608001358960a001356040518863ffffffff1660e01b8152600401610ac897969594939291906149b4565b600060405180830381600087803b158015610ae257600080fd5b505af1158015610af6573d6000803e3d6000fd5b505050600a8201546002830154610b1b92506001600160a01b03169033903090612b5d565b60005b6008820154811015610cd3576000826008018281548110610b4157610b416149f5565b6000918252602082206003909102019150815460ff166002811115610b6857610b6861428a565b03610b9b57600983015460028201548254610b96926001600160a01b03610100909204821692911690612bb7565b610cca565b6001815460ff166002811115610bb357610bb361428a565b03610c32578054600984015460018301546040516323b872dd60e01b81526101009093046001600160a01b03908116936323b872dd93610bfb93309390911691600401614a0b565b600060405180830381600087803b158015610c1557600080fd5b505af1158015610c29573d6000803e3d6000fd5b50505050610cca565b6002815460ff166002811115610c4a57610c4a61428a565b03610cca578054600984015460018301546002840154604051637921219560e11b81526001600160a01b0361010090950485169463f242432a94610c979430949190921692600401614a2f565b600060405180830381600087803b158015610cb157600080fd5b505af1158015610cc5573d6000803e3d6000fd5b505050505b50600101610b1e565b50505050565b6000908152600080516020614d0a833981519152602052604090206001015490565b336001600160a01b0386168114801590610d1c5750610d1a8682612939565b155b15610d4d5760405163711bec9160e11b81526001600160a01b03808316600483015287166024820152604401610949565b610d5a8686868686612be8565b505050505050565b610d6b82610cd9565b610d7481612c48565b610cd38383612c55565b6001600160a01b0381163314610da75760405163334bd91960e11b815260040160405180910390fd5b61096a8282612cfa565b60608151835114610de25781518351604051635b05999160e01b815260048101929092526024820152604401610949565b600083516001600160401b03811115610dfd57610dfd613e75565b604051908082528060200260200182016040528015610e26578160200160208202803683370190505b50905060005b8451811015610e7557602080820286010151610e509060208084028701015161081b565b828281518110610e6257610e626149f5565b6020908102919091010152600101610e2c565b509392505050565b610e85612d76565b610e8e82612e1d565b610e988282612e47565b5050565b6000610ea6612f04565b50600080516020614cca83398151915290565b6000818152600160208190526040909120908101546001600160a01b03163314610f185760405162461bcd60e51b815260206004820152601060248201526f2737ba103a3432903137b93937bbb2b960811b6044820152606401610949565b6000600782015460ff166003811115610f3357610f3361428a565b14610f805760405162461bcd60e51b815260206004820152601860248201527f4c6f616e2063616e6e6f742062652063616e63656c6c656400000000000000006044820152606401610949565b80600c01544211610fd35760405162461bcd60e51b815260206004820152601a60248201527f496e717569727920706572696f64206e6f7420657870697265640000000000006044820152606401610949565b60005b600882015481101561118b576000826008018281548110610ff957610ff96149f5565b6000918252602082206003909102019150815460ff1660028111156110205761102061428a565b036110535760018301546002820154825461104e926001600160a01b03610100909204821692911690612bb7565b611182565b6001815460ff16600281111561106b5761106b61428a565b036110ea578054600184810154908301546040516323b872dd60e01b81526101009093046001600160a01b03908116936323b872dd936110b393309390911691600401614a0b565b600060405180830381600087803b1580156110cd57600080fd5b505af11580156110e1573d6000803e3d6000fd5b50505050611182565b6002815460ff1660028111156111025761110261428a565b03611182578054600184810154908301546002840154604051637921219560e11b81526001600160a01b0361010090950485169463f242432a9461114f9430949190921692600401614a2f565b600060405180830381600087803b15801561116957600080fd5b505af115801561117d573d6000803e3d6000fd5b505050505b50600101610fd6565b5060078101805460ff1916600317905560405182907fb71becc91961a6b43bcc5b3b630f3dce02c7fd444cf3738c4f188062b1caf5bc90600090a25050565b3360009081526003602052604090205460ff166112245760405162461bcd60e51b81526020600482015260186024820152772737ba1030903bb434ba32b634b9ba32b2103632b73232b960411b6044820152606401610949565b600082815260016020526040812090600782015460ff16600381111561124c5761124c61428a565b146112995760405162461bcd60e51b815260206004820152601e60248201527f4c6f616e206e6f7420617661696c61626c6520666f722066756e64696e6700006044820152606401610949565b60008160030154116112bd5760405162461bcd60e51b815260040161094990614a67565b60028101546001600160a01b031663d505accf3330602086013560408701356112ec6080890160608a01614991565b88608001358960a001356040518863ffffffff1660e01b815260040161131897969594939291906149b4565b600060405180830381600087803b15801561133257600080fd5b505af1158015611346573d6000803e3d6000fd5b5050506003820154600283015461136b92506001600160a01b03169033903090612b5d565b600181015460038201546002830154611392926001600160a01b0391821692911690612bb7565b6009810180546001600160a01b0319163390811790915542600683015560078201805460ff1916600117905560405184907f15feab5d3eb17171632762cf769709a315dd15f487a556c0dfb8a259c8f186cc90600090a361096a3384836003015460405180602001604052806000815250612f4d565b611410613cef565b60008281526001602081815260409283902083516101a08101855281548152928101546001600160a01b0390811692840192909252600281015490911692820192909252600380830154606083015260048301546080830152600583015460a0830152600683015460c0830152600783015491929160e084019160ff9091169081111561149f5761149f61428a565b60038111156114b0576114b061428a565b815260200160088201805480602002602001604051908101604052809291908181526020016000905b8282101561157b576000848152602090206040805160808101909152600384029091018054829060ff1660028111156115145761151461428a565b60028111156115255761152561428a565b81526020016000820160019054906101000a90046001600160a01b03166001600160a01b03166001600160a01b0316815260200160018201548152602001600282015481525050815260200190600101906114d9565b5050509082525060098201546001600160a01b03166020820152600a8201546040820152600b82015460ff1615156060820152600c9091015460809091015292915050565b7ff0c57e16840df040f15088dc2f81fe391c3923bec73e23a9662efc9c229c6a008054600160401b810460ff1615906001600160401b03166000811580156116055750825b90506000826001600160401b031660011480156116215750303b155b90508115801561162f575080155b1561164d5760405163f92ee8a960e01b815260040160405180910390fd5b845467ffffffffffffffff19166001178555831561167757845460ff60401b1916600160401b1785555b61168087612faa565b611688612fbb565b611690612fbb565b6116d66040518060400160405280600b81526020016a4d79546f6b656e3131353560a81b815250604051806040016040528060018152602001603160f81b815250612fc3565b6116e1600087612c55565b5061170c7f9f2df0fed2c77648de5860a4cc508cd0818c85b8b8a1ab4ceeef8d981c8956a687612c55565b506117377f189ab7a9244df0848122154315af71fe140f3db0fe014031783b0946b8c9d2e387612c55565b50831561177e57845460ff60401b19168555604051600181527fc7f505b2f371ae2175ee4913f4499e1f2633a7b5936321eed1cdaeb6115181d29060200160405180910390a15b50505050505050565b3360009081526003602052604090205460ff166117e15760405162461bcd60e51b81526020600482015260186024820152772737ba1030903bb434ba32b634b9ba32b2103632b73232b960411b6044820152606401610949565b600081815260016020526040812090600782015460ff1660038111156118095761180961428a565b146118565760405162461bcd60e51b815260206004820152601e60248201527f4c6f616e206e6f7420617661696c61626c6520666f722066756e64696e6700006044820152606401610949565b60038101546002820154611879916001600160a01b039091169033903090612b5d565b6001810154600382015460028301546118a0926001600160a01b0391821692911690612bb7565b6009810180546001600160a01b0319163390811790915542600683015560078201805460ff1916600117905560405183907f15feab5d3eb17171632762cf769709a315dd15f487a556c0dfb8a259c8f186cc90600090a3610e983383836003015460405180602001604052806000815250612f4d565b60006060808280808381600080516020614caa833981519152805490915015801561194357506001810154155b6119875760405162461bcd60e51b81526020600482015260156024820152741152540dcc4c8e88155b9a5b9a5d1a585b1a5e9959605a1b6044820152606401610949565b61198f612fd5565b611997613098565b60408051600080825260208201909252600f60f81b9c939b5091995046985030975095509350915050565b6000918252600080516020614d0a833981519152602090815260408084206001600160a01b0393909316845291905290205460ff1690565b611a056000336119c2565b611a215760405162461bcd60e51b815260040161094990614804565b6001600160a01b03919091166000908152600360205260409020805460ff1916911515919091179055565b6001600160a01b03871660009081526002602052604090205460ff16611aae5760405162461bcd60e51b815260206004820152601760248201527614dd18589b1958dbda5b881b9bdd081858d8d95c1d1959604a1b6044820152606401610949565b60008611611ace5760405162461bcd60e51b815260040161094990614a67565b60005b81811015611c955736838383818110611aec57611aec6149f5565b60800291909101915060009050611b066020830183614aab565b6002811115611b1757611b1761428a565b03611b4c57611b4733306060840135611b366040860160208701613f77565b6001600160a01b0316929190612b5d565b611c8c565b6001611b5b6020830183614aab565b6002811115611b6c57611b6c61428a565b03611beb57611b816040820160208301613f77565b6001600160a01b03166323b872dd333084604001356040518463ffffffff1660e01b8152600401611bb493929190614a0b565b600060405180830381600087803b158015611bce57600080fd5b505af1158015611be2573d6000803e3d6000fd5b50505050611c8c565b6002611bfa6020830183614aab565b6002811115611c0b57611c0b61428a565b03611c8c57611c206040820160208301613f77565b6001600160a01b031663f242432a3330846040013585606001356040518563ffffffff1660e01b8152600401611c599493929190614a2f565b600060405180830381600087803b158015611c7357600080fd5b505af1158015611c87573d6000803e3d6000fd5b505050505b50600101611ad1565b50600080548082526001602081905260409092209081559081018054336001600160a01b0319918216179091556002820180549091166001600160a01b038a1617905560038101879055600481018690556005810185905560078101805460ff19169055611d038442614956565b600c82015560005b82811015611d615781600801848483818110611d2957611d296149f5565b835460018101855560009485526020909420608090910292909201926003029091019050611d578282614ac8565b5050600101611d0b565b506000805460405133927fb7401c74d1dadd9b1c5778044555b38bcde050d7371b0e27212cfe1c418febcd91a3600080549080611d9d83614b3d565b91905055505050505050505050565b610e983383836130d7565b6000818152600160208190526040909120908101546001600160a01b03163314611e165760405162461bcd60e51b815260206004820152601060248201526f2737ba103a3432903137b93937bbb2b960811b6044820152606401610949565b6001600782015460ff166003811115611e3157611e3161428a565b14611e705760405162461bcd60e51b815260206004820152600f60248201526e131bd85b881b9bdd08199d5b991959608a1b6044820152606401610949565b6000606482600401548360030154611e889190614b56565b611e929190614b6d565b90506000818360030154611ea69190614956565b6002840154909150611ec3906001600160a01b0316333084612b5d565b600a830181905560078301805460ff1916600217905560405184907f9a7851747cd7ffb3fe0a32caf3da48b31f27cebe131267051640f8b72fc4718690600090a260005b60088401548110156120bc576000846008018281548110611f2a57611f2a6149f5565b6000918252602082206003909102019150815460ff166002811115611f5157611f5161428a565b03611f8457600185015460028201548254611f7f926001600160a01b03610100909204821692911690612bb7565b6120b3565b6001815460ff166002811115611f9c57611f9c61428a565b0361201b578054600186810154908301546040516323b872dd60e01b81526101009093046001600160a01b03908116936323b872dd93611fe493309390911691600401614a0b565b600060405180830381600087803b158015611ffe57600080fd5b505af1158015612012573d6000803e3d6000fd5b505050506120b3565b6002815460ff1660028111156120335761203361428a565b036120b3578054600186810154908301546002840154604051637921219560e11b81526001600160a01b0361010090950485169463f242432a946120809430949190921692600401614a2f565b600060405180830381600087803b15801561209a57600080fd5b505af11580156120ae573d6000803e3d6000fd5b505050505b50600101611f07565b5050505050565b6120ce6000336119c2565b6120ea5760405162461bcd60e51b815260040161094990614804565b6001600160a01b03919091166000908152600260205260409020805460ff1916911515919091179055565b6000818152600460205260409020805460609190612132906147ca565b80601f016020809104026020016040519081016040528092919081815260200182805461215e906147ca565b80156121ab5780601f10612180576101008083540402835291602001916121ab565b820191906000526020600020905b81548152906001019060200180831161218e57829003601f168201915b50505050509050919050565b600081815260016020819052604090912090600782015460ff1660038111156121e2576121e261428a565b146122215760405162461bcd60e51b815260206004820152600f60248201526e4c6f616e206e6f742061637469766560881b6044820152606401610949565b806005015481600601546122359190614956565b612242906203f480614956565b42116122895760405162461bcd60e51b8152602060048201526016602482015275131bd85b881b9bdd08191959985d5b1d1959081e595d60521b6044820152606401610949565b60098101546001600160a01b031633146122b55760405162461bcd60e51b815260040161094990614969565b60078101805460ff1916600317905560405182907faf91ffe368225045d42f7c2b4b90feb438133ac1e375e73bc9066652b70a1d7790600090a2600a8101546002820154612312916001600160a01b039091169033903090612b5d565b60005b600882015481101561096a576000826008018281548110612338576123386149f5565b6000918252602082206003909102019150815460ff16600281111561235f5761235f61428a565b036123925760098301546002820154825461238d926001600160a01b03610100909204821692911690612bb7565b6124c1565b6001815460ff1660028111156123aa576123aa61428a565b03612429578054600984015460018301546040516323b872dd60e01b81526101009093046001600160a01b03908116936323b872dd936123f293309390911691600401614a0b565b600060405180830381600087803b15801561240c57600080fd5b505af1158015612420573d6000803e3d6000fd5b505050506124c1565b6002815460ff1660028111156124415761244161428a565b036124c1578054600984015460018301546002840154604051637921219560e11b81526001600160a01b0361010090950485169463f242432a9461248e9430949190921692600401614a2f565b600060405180830381600087803b1580156124a857600080fd5b505af11580156124bc573d6000803e3d6000fd5b505050505b50600101612315565b6124d382610cd9565b6124dc81612c48565b610cd38383612cfa565b82811461252d5760405162461bcd60e51b8152602060048201526015602482015274082e4e4c2f240d8cadccee8d040dad2e6dac2e8c6d605b1b6044820152606401610949565b6001600160a01b03891660009081526002602052604090205460ff1661258f5760405162461bcd60e51b815260206004820152601760248201527614dd18589b1958dbda5b881b9bdd081858d8d95c1d1959604a1b6044820152606401610949565b600088116125af5760405162461bcd60e51b815260040161094990614a67565b60005b8381101561282057368585838181106125cd576125cd6149f5565b9050608002019050368484848181106125e8576125e86149f5565b60c00291909101915061260090506020820182614aab565b60028111156126115761261161428a565b61261e6020840184614aab565b600281111561262f5761262f61428a565b146126875760405162461bcd60e51b815260206004820152602260248201527f41737365742074797065206d69736d6174636820696e207065726d6974206461604482015261746160f01b6064820152608401610949565b61269282823361317f565b60006126a16020840184614aab565b60028111156126b2576126b261428a565b036126d6576126d133306060850135611b366040870160208801613f77565b612816565b60016126e56020840184614aab565b60028111156126f6576126f661428a565b036127755761270b6040830160208401613f77565b6001600160a01b03166323b872dd333085604001356040518463ffffffff1660e01b815260040161273e93929190614a0b565b600060405180830381600087803b15801561275857600080fd5b505af115801561276c573d6000803e3d6000fd5b50505050612816565b60026127846020840184614aab565b60028111156127955761279561428a565b03612816576127aa6040830160208401613f77565b6001600160a01b031663f242432a3330856040013586606001356040518563ffffffff1660e01b81526004016127e39493929190614a2f565b600060405180830381600087803b1580156127fd57600080fd5b505af1158015612811573d6000803e3d6000fd5b505050505b50506001016125b2565b50600080548082526001602081905260409092209081559081018054336001600160a01b0319918216179091556002820180549091166001600160a01b038c1617905560038101899055600481018890556005810187905560078101805460ff1916905561288e8642614956565b600c82015560005b848110156128ec57816008018686838181106128b4576128b46149f5565b8354600181018555600094855260209094206080909102929092019260030290910190506128e28282614ac8565b5050600101612896565b506000805460405133927fb7401c74d1dadd9b1c5778044555b38bcde050d7371b0e27212cfe1c418febcd91a360008054908061292883614b3d565b919050555050505050505050505050565b6001600160a01b0391821660009081527f88be536d5240c274a3b1d3a1be54482fd9caa294f08c62a7cde569f49a3c45016020908152604080832093909416825291909152205460ff1690565b60008281526001602052604090206002600782015460ff1660038111156129af576129af61428a565b146129ee5760405162461bcd60e51b815260206004820152600f60248201526e131bd85b881b9bdd081c995c185a59608a1b6044820152606401610949565b60098101546001600160a01b03163314612a1a5760405162461bcd60e51b815260040161094990614969565b600b81015460ff1615612a635760405162461bcd60e51b815260206004820152601160248201527020b63932b0b23c903bb4ba34323930bbb760791b6044820152606401610949565b612a6e3384846133b6565b6002810154612a87906001600160a01b03163384612bb7565b600b8101805460ff19166001179055604051339084907f379f2274570d8a85d95e8b7abda2f8f7be0245d3315c3c39cba58ee5911a512990612acc9086815260200190565b60405180910390a3505050565b336001600160a01b0386168114801590612afa5750612af88682612939565b155b15612b2b5760405163711bec9160e11b81526001600160a01b03808316600483015287166024820152604401610949565b610d5a868686868661341e565b60006001600160e01b03198216637965db0b60e01b148061084c575061084c826134a3565b610cd384856001600160a01b03166323b872dd868686604051602401612b8593929190614a0b565b604051602081830303815290604052915060e01b6020820180516001600160e01b0383818316178352505050506134f3565b6040516001600160a01b0383811660248301526044820183905261096a91859182169063a9059cbb90606401612b85565b6001600160a01b038416612c1257604051632bfa23e760e11b815260006004820152602401610949565b6001600160a01b038516612c3b57604051626a0d4560e21b815260006004820152602401610949565b6120bc8585858585613564565b612c5281336135b7565b50565b6000600080516020614d0a833981519152612c7084846119c2565b612cf0576000848152602082815260408083206001600160a01b03871684529091529020805460ff19166001179055612ca63390565b6001600160a01b0316836001600160a01b0316857f2f8788117e7eff1d82e926ec794901d17c78024a50270940304540a733656f0d60405160405180910390a4600191505061084c565b600091505061084c565b6000600080516020614d0a833981519152612d1584846119c2565b15612cf0576000848152602082815260408083206001600160a01b0387168085529252808320805460ff1916905551339287917ff6391f5c32d9c69d2a47ea670b442974b53935d1edc7fd64eb21e047a839171b9190a4600191505061084c565b306001600160a01b037f0000000000000000000000000000000000000000000000000000000000000000161480612dfd57507f00000000000000000000000000000000000000000000000000000000000000006001600160a01b0316612df1600080516020614cca833981519152546001600160a01b031690565b6001600160a01b031614155b15612e1b5760405163703e46dd60e11b815260040160405180910390fd5b565b7f189ab7a9244df0848122154315af71fe140f3db0fe014031783b0946b8c9d2e3610e9881612c48565b816001600160a01b03166352d1902d6040518163ffffffff1660e01b8152600401602060405180830381865afa925050508015612ea1575060408051601f3d908101601f19168201909252612e9e91810190614b8f565b60015b612ec957604051634c9c8ce360e01b81526001600160a01b0383166004820152602401610949565b600080516020614cca8339815191528114612efa57604051632a87526960e21b815260048101829052602401610949565b61096a83836135f0565b306001600160a01b037f00000000000000000000000000000000000000000000000000000000000000001614612e1b5760405163703e46dd60e11b815260040160405180910390fd5b6001600160a01b038416612f7757604051632bfa23e760e11b815260006004820152602401610949565b60408051600180825260208201869052818301908152606082018590526080820190925290610d5a600087848487613564565b612fb2613646565b612c528161368f565b612e1b613646565b612fcb613646565b610e9882826136a0565b7fa16a46d94261c7517cc8ff89f61c0ce93598e3c849801011dee649a6a557d1028054606091600080516020614caa83398151915291613014906147ca565b80601f0160208091040260200160405190810160405280929190818152602001828054613040906147ca565b801561308d5780601f106130625761010080835404028352916020019161308d565b820191906000526020600020905b81548152906001019060200180831161307057829003601f168201915b505050505091505090565b7fa16a46d94261c7517cc8ff89f61c0ce93598e3c849801011dee649a6a557d1038054606091600080516020614caa83398151915291613014906147ca565b600080516020614cea8339815191526001600160a01b03831661310f5760405162ced3e160e81b815260006004820152602401610949565b6001600160a01b038481166000818152600184016020908152604080832094881680845294825291829020805460ff191687151590811790915591519182527f17307eab39ab6107e8899845ad3d59bd9653f200f220920489ca2b5937696c31910160405180910390a350505050565b600061318e6020850185614aab565b600281111561319f5761319f61428a565b03613238576131b46040840160208501613f77565b6001600160a01b031663d505accf8230602086013560408701356131de6080890160608a01614991565b88608001358960a001356040518863ffffffff1660e01b815260040161320a97969594939291906149b4565b600060405180830381600087803b15801561322457600080fd5b505af115801561177e573d6000803e3d6000fd5b60016132476020850185614aab565b60028111156132585761325861428a565b036132eb5761326d6040840160208501613f77565b6001600160a01b0316637ac2ff7b30604080870135908601356132966080880160608901614991565b6040516001600160e01b031960e087901b1681526001600160a01b0390941660048501526024840192909252604483015260ff1660648201526080850135608482015260a085013560a482015260c40161320a565b60026132fa6020850185614aab565b600281111561330b5761330b61428a565b0361096a576133206040840160208501613f77565b6001600160a01b031663dbaef5e082308660400135876060013587604001358860600160208101906133529190614991565b6040516001600160e01b031960e089901b1681526001600160a01b03968716600482015295909416602486015260448501929092526064840152608483015260ff1660a4820152608085013560c482015260a085013560e48201526101040161320a565b6001600160a01b0383166133df57604051626a0d4560e21b815260006004820152602401610949565b604080516001808252602082018590528183019081526060820184905260a082019092526000608082018181529192916120bc91879185908590613564565b6001600160a01b03841661344857604051632bfa23e760e11b815260006004820152602401610949565b6001600160a01b03851661347157604051626a0d4560e21b815260006004820152602401610949565b6040805160018082526020820186905281830190815260608201859052608082019092529061177e8787848487613564565b60006001600160e01b03198216636cdb3d1360e11b14806134d457506001600160e01b031982166303a24d0760e21b145b8061084c57506301ffc9a760e01b6001600160e01b031983161461084c565b600080602060008451602086016000885af180613516576040513d6000823e3d81fd5b50506000513d9150811561352e57806001141561353b565b6001600160a01b0384163b155b15610cd357604051635274afe760e01b81526001600160a01b0385166004820152602401610949565b61357085858585613701565b6001600160a01b038416156120bc57825133906001036135a957602084810151908401516135a2838989858589613926565b5050610d5a565b610d5a818787878787613a4a565b6135c182826119c2565b610e985760405163e2517d3f60e01b81526001600160a01b038216600482015260248101839052604401610949565b6135f982613b33565b6040516001600160a01b038316907fbc7cd75a20ee27fd9adebab32041f755214dbc6bffa90cc0225b39da2e5c2d3b90600090a280511561363e5761096a8282613b98565b610e98613c0e565b7ff0c57e16840df040f15088dc2f81fe391c3923bec73e23a9662efc9c229c6a0054600160401b900460ff16612e1b57604051631afcd79f60e31b815260040160405180910390fd5b613697613646565b612c5281613c2d565b6136a8613646565b600080516020614caa8339815191527fa16a46d94261c7517cc8ff89f61c0ce93598e3c849801011dee649a6a557d1026136e28482614882565b50600381016136f18382614882565b5060008082556001909101555050565b80518251600080516020614cea83398151915291146137405782518251604051635b05999160e01b815260048101929092526024820152604401610949565b3360005b8451811015613846576020818102868101820151908601909101516001600160a01b038916156137f7576000828152602086815260408083206001600160a01b038d168452909152902054818110156137d0576040516303dee4c560e01b81526001600160a01b038b166004820152602481018290526044810183905260648101849052608401610949565b6000838152602087815260408083206001600160a01b038e16845290915290209082900390555b6001600160a01b0388161561383c576000828152602086815260408083206001600160a01b038c16845290915281208054839290613836908490614956565b90915550505b5050600101613744565b5083516001036138c75760208401516000906020850151909150866001600160a01b0316886001600160a01b0316846001600160a01b03167fc3d58168c5ae7397731d063d5bbf3d657854427343f4c083240f7aacaa2d0f6285856040516138b8929190918252602082015260400190565b60405180910390a45050610d5a565b846001600160a01b0316866001600160a01b0316826001600160a01b03167f4a39dc06d4c0dbc64b70af90fd698a233a518aa5d07e595d983b8c0526c8f7fb8787604051613916929190614ba8565b60405180910390a4505050505050565b6001600160a01b0384163b15610d5a5760405163f23a6e6160e01b81526001600160a01b0385169063f23a6e619061396a9089908990889088908890600401614bcd565b6020604051808303816000875af19250505080156139a5575060408051601f3d908101601f191682019092526139a291810190614c12565b60015b613a0e573d8080156139d3576040519150601f19603f3d011682016040523d82523d6000602084013e6139d8565b606091505b508051600003613a0657604051632bfa23e760e11b81526001600160a01b0386166004820152602401610949565b805181602001fd5b6001600160e01b0319811663f23a6e6160e01b1461177e57604051632bfa23e760e11b81526001600160a01b0386166004820152602401610949565b6001600160a01b0384163b15610d5a5760405163bc197c8160e01b81526001600160a01b0385169063bc197c8190613a8e9089908990889088908890600401614c2f565b6020604051808303816000875af1925050508015613ac9575060408051601f3d908101601f19168201909252613ac691810190614c12565b60015b613af7573d8080156139d3576040519150601f19603f3d011682016040523d82523d6000602084013e6139d8565b6001600160e01b0319811663bc197c8160e01b1461177e57604051632bfa23e760e11b81526001600160a01b0386166004820152602401610949565b806001600160a01b03163b600003613b6957604051634c9c8ce360e01b81526001600160a01b0382166004820152602401610949565b600080516020614cca83398151915280546001600160a01b0319166001600160a01b0392909216919091179055565b6060600080846001600160a01b031684604051613bb59190614c8d565b600060405180830381855af49150503d8060008114613bf0576040519150601f19603f3d011682016040523d82523d6000602084013e613bf5565b606091505b5091509150613c05858383613c67565b95945050505050565b3415612e1b5760405163b398979f60e01b815260040160405180910390fd5b600080516020614cea8339815191527f88be536d5240c274a3b1d3a1be54482fd9caa294f08c62a7cde569f49a3c450261096a8382614882565b606082613c7c57613c7782613cc6565b613cbf565b8151158015613c9357506001600160a01b0384163b155b15613cbc57604051639996b31560e01b81526001600160a01b0385166004820152602401610949565b50805b9392505050565b805115613cd65780518082602001fd5b60405163d6bda27560e01b815260040160405180910390fd5b604051806101a001604052806000815260200160006001600160a01b0316815260200160006001600160a01b031681526020016000815260200160008152602001600081526020016000815260200160006003811115613d5157613d5161428a565b81526020016060815260200160006001600160a01b0316815260200160008152602001600015158152602001600081525090565b6001600160a01b0381168114612c5257600080fd5b60008060408385031215613dad57600080fd5b8235613db881613d85565b946020939093013593505050565b6001600160e01b031981168114612c5257600080fd5b600060208284031215613dee57600080fd5b8135613cbf81613dc6565b600060208284031215613e0b57600080fd5b5035919050565b60005b83811015613e2d578181015183820152602001613e15565b50506000910152565b60008151808452613e4e816020860160208601613e12565b601f01601f19169290920160200192915050565b602081526000613cbf6020830184613e36565b634e487b7160e01b600052604160045260246000fd5b604051601f8201601f191681016001600160401b0381118282101715613eb357613eb3613e75565b604052919050565b600082601f830112613ecc57600080fd5b8135602083016000806001600160401b03841115613eec57613eec613e75565b50601f8301601f1916602001613f0181613e8b565b915050828152858383011115613f1657600080fd5b82826020830137600092810160200192909252509392505050565b60008060408385031215613f4457600080fd5b8235915060208301356001600160401b03811115613f6157600080fd5b613f6d85828601613ebb565b9150509250929050565b600060208284031215613f8957600080fd5b8135613cbf81613d85565b60008082840360e0811215613fa857600080fd5b8335925060c0601f1982011215613fbe57600080fd5b506020830190509250929050565b60006001600160401b03821115613fe557613fe5613e75565b5060051b60200190565b600082601f83011261400057600080fd5b813561401361400e82613fcc565b613e8b565b8082825260208201915060208360051b86010192508583111561403557600080fd5b602085015b8381101561405257803583526020928301920161403a565b5095945050505050565b600080600080600060a0868803121561407457600080fd5b853561407f81613d85565b9450602086013561408f81613d85565b935060408601356001600160401b038111156140aa57600080fd5b6140b688828901613fef565b93505060608601356001600160401b038111156140d257600080fd5b6140de88828901613fef565b92505060808601356001600160401b038111156140fa57600080fd5b61410688828901613ebb565b9150509295509295909350565b6000806040838503121561412657600080fd5b82359150602083013561413881613d85565b809150509250929050565b6000806040838503121561415657600080fd5b82356001600160401b0381111561416c57600080fd5b8301601f8101851361417d57600080fd5b803561418b61400e82613fcc565b8082825260208201915060208360051b8501019250878311156141ad57600080fd5b6020840193505b828410156141d85783356141c781613d85565b8252602093840193909101906141b4565b945050505060208301356001600160401b038111156141f657600080fd5b613f6d85828601613fef565b600081518084526020840193506020830160005b82811015614234578151865260209586019590910190600101614216565b5093949350505050565b602081526000613cbf6020830184614202565b6000806040838503121561426457600080fd5b823561426f81613d85565b915060208301356001600160401b03811115613f6157600080fd5b634e487b7160e01b600052602160045260246000fd5b600481106142b0576142b061428a565b9052565b600081518084526020840193506020830160005b828110156142345781518051600381106142e4576142e461428a565b87526020818101516001600160a01b031681890152604080830151908901526060918201519188019190915260809096019591909101906001016142c8565b60208152815160208201526000602083015161434a60408401826001600160a01b03169052565b5060408301516001600160a01b03811660608401525060608301516080830152608083015160a083015260a083015160c083015260c083015160e083015260e083015161439b6101008401826142a0565b506101008301516101a06101208401526143b96101c08401826142b4565b90506101208401516143d76101408501826001600160a01b03169052565b506101408401516101608401526101608401516143f961018085018215159052565b506101808401516101a08401528091505092915050565b6000806040838503121561442357600080fd5b82356001600160401b0381111561443957600080fd5b61444585828601613ebb565b925050602083013561413881613d85565b60ff60f81b8816815260e06020820152600061447560e0830189613e36565b82810360408401526144878189613e36565b606084018890526001600160a01b038716608085015260a0840186905283810360c085015290506144b88185614202565b9a9950505050505050505050565b600080604083850312156144d957600080fd5b82356144e481613d85565b91506020830135801515811461413857600080fd5b60008083601f84011261450b57600080fd5b5081356001600160401b0381111561452257600080fd5b6020830191508360208260071b850101111561453d57600080fd5b9250929050565b600080600080600080600060c0888a03121561455f57600080fd5b873561456a81613d85565b96506020880135955060408801359450606088013593506080880135925060a08801356001600160401b038111156145a157600080fd5b6145ad8a828b016144f9565b989b979a50959850939692959293505050565b600080600080600080600080600060e08a8c0312156145de57600080fd5b89356145e981613d85565b985060208a0135975060408a0135965060608a0135955060808a0135945060a08a01356001600160401b0381111561462057600080fd5b61462c8c828d016144f9565b90955093505060c08a01356001600160401b0381111561464b57600080fd5b8a01601f81018c1361465c57600080fd5b80356001600160401b0381111561467257600080fd5b8c602060c08302840101111561468757600080fd5b60208201935080925050509295985092959850929598565b8c81526001600160a01b038c811660208301528b166040820152606081018a90526080810189905260a0810188905260c0810187905261018081016146e760e08301886142a0565b6001600160a01b03959095166101008201526101208101939093529015156101408301526101609091015298975050505050505050565b6000806040838503121561473157600080fd5b823561473c81613d85565b9150602083013561413881613d85565b6000806040838503121561475f57600080fd5b50508035926020909101359150565b600080600080600060a0868803121561478657600080fd5b853561479181613d85565b945060208601356147a181613d85565b9350604086013592506060860135915060808601356001600160401b038111156140fa57600080fd5b600181811c908216806147de57607f821691505b6020821081036147fe57634e487b7160e01b600052602260045260246000fd5b50919050565b60208082526017908201527f43616c6c6572206973206e6f7420746865206f776e6572000000000000000000604082015260600190565b601f82111561096a57806000526020600020601f840160051c810160208510156148625750805b601f840160051c820191505b818110156120bc576000815560010161486e565b81516001600160401b0381111561489b5761489b613e75565b6148af816148a984546147ca565b8461483b565b6020601f8211600181146148e357600083156148cb5750848201515b600019600385901b1c1916600184901b1784556120bc565b600084815260208120601f198516915b8281101561491357878501518255602094850194600190920191016148f3565b50848210156149315786840151600019600387901b60f8161c191681555b50505050600190811b01905550565b634e487b7160e01b600052601160045260246000fd5b8082018082111561084c5761084c614940565b6020808252600e908201526d2737ba103a3432903632b73232b960911b604082015260600190565b6000602082840312156149a357600080fd5b813560ff81168114613cbf57600080fd5b6001600160a01b0397881681529590961660208601526040850193909352606084019190915260ff16608083015260a082015260c081019190915260e00190565b634e487b7160e01b600052603260045260246000fd5b6001600160a01b039384168152919092166020820152604081019190915260600190565b6001600160a01b0394851681529290931660208301526040820152606081019190915260a06080820181905260009082015260c00190565b60208082526017908201527f4c6f616e20616d6f756e74206d757374206265203e2030000000000000000000604082015260600190565b60038110612c5257600080fd5b600060208284031215614abd57600080fd5b8135613cbf81614a9e565b8135614ad381614a9e565b60038110614ae357614ae361428a565b815460ff821691508160ff1982161783556020840135614b0281613d85565b6001600160a81b03199190911690911760089190911b610100600160a81b031617815560408201356001820155606090910135600290910155565b600060018201614b4f57614b4f614940565b5060010190565b808202811582820484141761084c5761084c614940565b600082614b8a57634e487b7160e01b600052601260045260246000fd5b500490565b600060208284031215614ba157600080fd5b5051919050565b604081526000614bbb6040830185614202565b8281036020840152613c058185614202565b6001600160a01b03868116825285166020820152604081018490526060810183905260a060808201819052600090614c0790830184613e36565b979650505050505050565b600060208284031215614c2457600080fd5b8151613cbf81613dc6565b6001600160a01b0386811682528516602082015260a060408201819052600090614c5b90830186614202565b8281036060840152614c6d8186614202565b90508281036080840152614c818185613e36565b98975050505050505050565b60008251614c9f818460208701613e12565b919091019291505056fea16a46d94261c7517cc8ff89f61c0ce93598e3c849801011dee649a6a557d100360894a13ba1a3210667c828492db98dca3e2076cc3735a920a3ca505d382bbc88be536d5240c274a3b1d3a1be54482fd9caa294f08c62a7cde569f49a3c450002dd7bc7dec4dceedda775e58dd541e08a116c6c53815c0bd028192f7b626800a2646970667358221220e45f2bc2584df9b0a8b69b3d72608746c76346c88559399f94b8b87fbb72f4b164736f6c634300081c0033",
  "linkReferences": {},
  "deployedLinkReferences": {}
}