{
  "_format": "hh-sol-artifact-1",
  "contractName": "MyERC20",
  "sourceName": "contracts/src/ERC20.sol",
  "abi": [
    {
      "inputs": [],
      "name": "AccessControlBadConfirmation",
      "type": "error"
    },
    {
      "inputs": [
        {
          "internalType": "address",
          "name": "account",
          "type": "address"
        },
        {
          "internalType": "bytes32",
          "name": "neededRole",
          "type": "bytes32"
        }
      ],
      "name": "AccessControlUnauthorizedAccount",
      "type": "error"
    },
    {
      "inputs": [
        {
          "internalType": "address",
          "name": "target",
          "type": "address"
        }
      ],
      "name": "AddressEmptyCode",
      "type": "error"
    },
    {
      "inputs": [
        {
          "internalType": "address",
          "name": "implementation",
          "type": "address"
        }
      ],
      "name": "ERC1967InvalidImplementation",
      "type": "error"
    },
    {
      "inputs": [],
      "name": "ERC1967NonPayable",
      "type": "error"
    },
    {
      "inputs": [
        {
          "internalType": "address",
          "name": "spender",
          "type": "address"
        },
        {
          "internalType": "uint256",
          "name": "allowance",
          "type": "uint256"
        },
        {
          "internalType": "uint256",
          "name": "needed",
          "type": "uint256"
        }
      ],
      "name": "ERC20InsufficientAllowance",
      "type": "error"
    },
    {
      "inputs": [
        {
          "internalType": "address",
          "name": "sender",
          "type": "address"
        },
        {
          "internalType": "uint256",
          "name": "balance",
          "type": "uint256"
        },
        {
          "internalType": "uint256",
          "name": "needed",
          "type": "uint256"
        }
      ],
      "name": "ERC20InsufficientBalance",
      "type": "error"
    },
    {
      "inputs": [
        {
          "internalType": "address",
          "name": "approver",
          "type": "address"
        }
      ],
      "name": "ERC20InvalidApprover",
      "type": "error"
    },
    {
      "inputs": [
        {
          "internalType": "address",
          "name": "receiver",
          "type": "address"
        }
      ],
      "name": "ERC20InvalidReceiver",
      "type": "error"
    },
    {
      "inputs": [
        {
          "internalType": "address",
          "name": "sender",
          "type": "address"
        }
      ],
      "name": "ERC20InvalidSender",
      "type": "error"
    },
    {
      "inputs": [
        {
          "internalType": "address",
          "name": "spender",
          "type": "address"
        }
      ],
      "name": "ERC20InvalidSpender",
      "type": "error"
    },
    {
      "inputs": [],
      "name": "FailedCall",
      "type": "error"
    },
    {
      "inputs": [],
      "name": "InvalidInitialization",
      "type": "error"
    },
    {
      "inputs": [],
      "name": "NotInitializing",
      "type": "error"
    },
    {
      "inputs": [],
      "name": "UUPSUnauthorizedCallContext",
      "type": "error"
    },
    {
      "inputs": [
        {
          "internalType": "bytes32",
          "name": "slot",
          "type": "bytes32"
        }
      ],
      "name": "UUPSUnsupportedProxiableUUID",
      "type": "error"
    },
    {
      "anonymous": false,
      "inputs": [
        {
          "indexed": true,
          "internalType": "address",
          "name": "owner",
          "type": "address"
        },
        {
          "indexed": true,
          "internalType": "address",
          "name": "spender",
          "type": "address"
        },
        {
          "indexed": false,
          "internalType": "uint256",
          "name": "value",
          "type": "uint256"
        }
      ],
      "name": "Approval",
      "type": "event"
    },
    {
      "anonymous": false,
      "inputs": [
        {
          "indexed": false,
          "internalType": "uint64",
          "name": "version",
          "type": "uint64"
        }
      ],
      "name": "Initialized",
      "type": "event"
    },
    {
      "anonymous": false,
      "inputs": [
        {
          "indexed": true,
          "internalType": "bytes32",
          "name": "role",
          "type": "bytes32"
        },
        {
          "indexed": true,
          "internalType": "bytes32",
          "name": "previousAdminRole",
          "type": "bytes32"
        },
        {
          "indexed": true,
          "internalType": "bytes32",
          "name": "newAdminRole",
          "type": "bytes32"
        }
      ],
      "name": "RoleAdminChanged",
      "type": "event"
    },
    {
      "anonymous": false,
      "inputs": [
        {
          "indexed": true,
          "internalType": "bytes32",
          "name": "role",
          "type": "bytes32"
        },
        {
          "indexed": true,
          "internalType": "address",
          "name": "account",
          "type": "address"
        },
        {
          "indexed": true,
          "internalType": "address",
          "name": "sender",
          "type": "address"
        }
      ],
      "name": "RoleGranted",
      "type": "event"
    },
    {
      "anonymous": false,
      "inputs": [
        {
          "indexed": true,
          "internalType": "bytes32",
          "name": "role",
          "type": "bytes32"
        },
        {
          "indexed": true,
          "internalType": "address",
          "name": "account",
          "type": "address"
        },
        {
          "indexed": true,
          "internalType": "address",
          "name": "sender",
          "type": "address"
        }
      ],
      "name": "RoleRevoked",
      "type": "event"
    },
    {
      "anonymous": false,
      "inputs": [
        {
          "indexed": true,
          "internalType": "address",
          "name": "from",
          "type": "address"
        },
        {
          "indexed": true,
          "internalType": "address",
          "name": "to",
          "type": "address"
        },
        {
          "indexed": false,
          "internalType": "uint256",
          "name": "value",
          "type": "uint256"
        }
      ],
      "name": "Transfer",
      "type": "event"
    },
    {
      "anonymous": false,
      "inputs": [
        {
          "indexed": true,
          "internalType": "address",
          "name": "implementation",
          "type": "address"
        }
      ],
      "name": "Upgraded",
      "type": "event"
    },
    {
      "inputs": [],
      "name": "DEFAULT_ADMIN_ROLE",
      "outputs": [
        {
          "internalType": "bytes32",
          "name": "",
          "type": "bytes32"
        }
      ],
      "stateMutability": "view",
      "type": "function"
    },
    {
      "inputs": [],
      "name": "UPGRADER_ROLE",
      "outputs": [
        {
          "internalType": "bytes32",
          "name": "",
          "type": "bytes32"
        }
      ],
      "stateMutability": "view",
      "type": "function"
    },
    {
      "inputs": [],
      "name": "UPGRADE_INTERFACE_VERSION",
      "outputs": [
        {
          "internalType": "string",
          "name": "",
          "type": "string"
        }
      ],
      "stateMutability": "view",
      "type": "function"
    },
    {
      "inputs": [
        {
          "internalType": "address",
          "name": "owner",
          "type": "address"
        },
        {
          "internalType": "address",
          "name": "spender",
          "type": "address"
        }
      ],
      "name": "allowance",
      "outputs": [
        {
          "internalType": "uint256",
          "name": "",
          "type": "uint256"
        }
      ],
      "stateMutability": "view",
      "type": "function"
    },
    {
      "inputs": [
        {
          "internalType": "address",
          "name": "spender",
          "type": "address"
        },
        {
          "internalType": "uint256",
          "name": "value",
          "type": "uint256"
        }
      ],
      "name": "approve",
      "outputs": [
        {
          "internalType": "bool",
          "name": "",
          "type": "bool"
        }
      ],
      "stateMutability": "nonpayable",
      "type": "function"
    },
    {
      "inputs": [
        {
          "internalType": "address",
          "name": "account",
          "type": "address"
        }
      ],
      "name": "balanceOf",
      "outputs": [
        {
          "internalType": "uint256",
          "name": "",
          "type": "uint256"
        }
      ],
      "stateMutability": "view",
      "type": "function"
    },
    {
      "inputs": [],
      "name": "decimals",
      "outputs": [
        {
          "internalType": "uint8",
          "name": "",
          "type": "uint8"
        }
      ],
      "stateMutability": "pure",
      "type": "function"
    },
    {
      "inputs": [
        {
          "internalType": "bytes32",
          "name": "role",
          "type": "bytes32"
        }
      ],
      "name": "getRoleAdmin",
      "outputs": [
        {
          "internalType": "bytes32",
          "name": "",
          "type": "bytes32"
        }
      ],
      "stateMutability": "view",
      "type": "function"
    },
    {
      "inputs": [
        {
          "internalType": "bytes32",
          "name": "role",
          "type": "bytes32"
        },
        {
          "internalType": "address",
          "name": "account",
          "type": "address"
        }
      ],
      "name": "grantRole",
      "outputs": [],
      "stateMutability": "nonpayable",
      "type": "function"
    },
    {
      "inputs": [
        {
          "internalType": "bytes32",
          "name": "role",
          "type": "bytes32"
        },
        {
          "internalType": "address",
          "name": "account",
          "type": "address"
        }
      ],
      "name": "hasRole",
      "outputs": [
        {
          "internalType": "bool",
          "name": "",
          "type": "bool"
        }
      ],
      "stateMutability": "view",
      "type": "function"
    },
    {
      "inputs": [
        {
          "internalType": "uint256",
          "name": "initialSupply",
          "type": "uint256"
        }
      ],
      "name": "initialize",
      "outputs": [],
      "stateMutability": "nonpayable",
      "type": "function"
    },
    {
      "inputs": [],
      "name": "name",
      "outputs": [
        {
          "internalType": "string",
          "name": "",
          "type": "string"
        }
      ],
      "stateMutability": "view",
      "type": "function"
    },
    {
      "inputs": [],
      "name": "proxiableUUID",
      "outputs": [
        {
          "internalType": "bytes32",
          "name": "",
          "type": "bytes32"
        }
      ],
      "stateMutability": "view",
      "type": "function"
    },
    {
      "inputs": [
        {
          "internalType": "bytes32",
          "name": "role",
          "type": "bytes32"
        },
        {
          "internalType": "address",
          "name": "callerConfirmation",
          "type": "address"
        }
      ],
      "name": "renounceRole",
      "outputs": [],
      "stateMutability": "nonpayable",
      "type": "function"
    },
    {
      "inputs": [
        {
          "internalType": "bytes32",
          "name": "role",
          "type": "bytes32"
        },
        {
          "internalType": "address",
          "name": "account",
          "type": "address"
        }
      ],
      "name": "revokeRole",
      "outputs": [],
      "stateMutability": "nonpayable",
      "type": "function"
    },
    {
      "inputs": [
        {
          "internalType": "bytes4",
          "name": "interfaceId",
          "type": "bytes4"
        }
      ],
      "name": "supportsInterface",
      "outputs": [
        {
          "internalType": "bool",
          "name": "",
          "type": "bool"
        }
      ],
      "stateMutability": "view",
      "type": "function"
    },
    {
      "inputs": [],
      "name": "symbol",
      "outputs": [
        {
          "internalType": "string",
          "name": "",
          "type": "string"
        }
      ],
      "stateMutability": "view",
      "type": "function"
    },
    {
      "inputs": [],
      "name": "totalSupply",
      "outputs": [
        {
          "internalType": "uint256",
          "name": "",
          "type": "uint256"
        }
      ],
      "stateMutability": "view",
      "type": "function"
    },
    {
      "inputs": [
        {
          "internalType": "address",
          "name": "to",
          "type": "address"
        },
        {
          "internalType": "uint256",
          "name": "value",
          "type": "uint256"
        }
      ],
      "name": "transfer",
      "outputs": [
        {
          "internalType": "bool",
          "name": "",
          "type": "bool"
        }
      ],
      "stateMutability": "nonpayable",
      "type": "function"
    },
    {
      "inputs": [
        {
          "internalType": "address",
          "name": "from",
          "type": "address"
        },
        {
          "internalType": "address",
          "name": "to",
          "type": "address"
        },
        {
          "internalType": "uint256",
          "name": "value",
          "type": "uint256"
        }
      ],
      "name": "transferFrom",
      "outputs": [
        {
          "internalType": "bool",
          "name": "",
          "type": "bool"
        }
      ],
      "stateMutability": "nonpayable",
      "type": "function"
    },
    {
      "inputs": [
        {
          "internalType": "address",
          "name": "newImplementation",
          "type": "address"
        },
        {
          "internalType": "bytes",
          "name": "data",
          "type": "bytes"
        }
      ],
      "name": "upgradeToAndCall",
      "outputs": [],
      "stateMutability": "payable",
      "type": "function"
    }
  ],
  "bytecode": "0x60a060405230608052348015601357600080fd5b5060805161162461003d60003960008181610aa001528181610ac90152610c2e01526116246000f3fe60806040526004361061012a5760003560e01c806352d1902d116100ab578063a9059cbb1161006f578063a9059cbb14610337578063ad3cb1cc14610357578063d547741f14610388578063dd62ed3e146103a8578063f72c0d8b146103c8578063fe4b84df146103fc57600080fd5b806352d1902d1461029557806370a08231146102aa57806391d14854146102ed57806395d89b411461030d578063a217fddf1461032257600080fd5b8063248a9ca3116100f2578063248a9ca3146102045780632f2ff15d14610224578063313ce5671461024657806336568abe146102625780634f1ef2861461028257600080fd5b806301ffc9a71461012f57806306fdde0314610164578063095ea7b31461018657806318160ddd146101a657806323b872dd146101e4575b600080fd5b34801561013b57600080fd5b5061014f61014a36600461118a565b61041c565b60405190151581526020015b60405180910390f35b34801561017057600080fd5b50610179610453565b60405161015b91906111d8565b34801561019257600080fd5b5061014f6101a1366004611227565b610516565b3480156101b257600080fd5b507f52c63247e1f47db19d5ce0460030c497f067ca4cebf71ba98eeadabe20bace02545b60405190815260200161015b565b3480156101f057600080fd5b5061014f6101ff366004611251565b61052e565b34801561021057600080fd5b506101d661021f36600461128e565b610554565b34801561023057600080fd5b5061024461023f3660046112a7565b610576565b005b34801561025257600080fd5b506040516006815260200161015b565b34801561026e57600080fd5b5061024461027d3660046112a7565b610598565b6102446102903660046112e9565b6105d0565b3480156102a157600080fd5b506101d66105ef565b3480156102b657600080fd5b506101d66102c53660046113b3565b6001600160a01b0316600090815260008051602061158f833981519152602052604090205490565b3480156102f957600080fd5b5061014f6103083660046112a7565b61060c565b34801561031957600080fd5b50610179610644565b34801561032e57600080fd5b506101d6600081565b34801561034357600080fd5b5061014f610352366004611227565b610683565b34801561036357600080fd5b50610179604051806040016040528060058152602001640352e302e360dc1b81525081565b34801561039457600080fd5b506102446103a33660046112a7565b610691565b3480156103b457600080fd5b506101d66103c33660046113ce565b6106ad565b3480156103d457600080fd5b506101d67f189ab7a9244df0848122154315af71fe140f3db0fe014031783b0946b8c9d2e381565b34801561040857600080fd5b5061024461041736600461128e565b6106f7565b60006001600160e01b03198216637965db0b60e01b148061044d57506301ffc9a760e01b6001600160e01b03198316145b92915050565b7f52c63247e1f47db19d5ce0460030c497f067ca4cebf71ba98eeadabe20bace03805460609160008051602061158f83398151915291610492906113f8565b80601f01602080910402602001604051908101604052809291908181526020018280546104be906113f8565b801561050b5780601f106104e05761010080835404028352916020019161050b565b820191906000526020600020905b8154815290600101906020018083116104ee57829003601f168201915b505050505091505090565b600033610524818585610895565b5060019392505050565b60003361053c8582856108a2565b610547858585610908565b60019150505b9392505050565b60009081526000805160206115cf833981519152602052604090206001015490565b61057f82610554565b61058881610967565b6105928383610974565b50505050565b6001600160a01b03811633146105c15760405163334bd91960e11b815260040160405180910390fd5b6105cb8282610a19565b505050565b6105d8610a95565b6105e182610b3c565b6105eb8282610b66565b5050565b60006105f9610c23565b506000805160206115af83398151915290565b60009182526000805160206115cf833981519152602090815260408084206001600160a01b0393909316845291905290205460ff1690565b7f52c63247e1f47db19d5ce0460030c497f067ca4cebf71ba98eeadabe20bace04805460609160008051602061158f83398151915291610492906113f8565b600033610524818585610908565b61069a82610554565b6106a381610967565b6105928383610a19565b6001600160a01b0391821660009081527f52c63247e1f47db19d5ce0460030c497f067ca4cebf71ba98eeadabe20bace016020908152604080832093909416825291909152205490565b7ff0c57e16840df040f15088dc2f81fe391c3923bec73e23a9662efc9c229c6a008054600160401b810460ff16159067ffffffffffffffff1660008115801561073d5750825b905060008267ffffffffffffffff16600114801561075a5750303b155b905081158015610768575080155b156107865760405163f92ee8a960e01b815260040160405180910390fd5b845467ffffffffffffffff1916600117855583156107b057845460ff60401b1916600160401b1785555b6107f6604051806040016040528060088152602001672aa9a21021b7b4b760c11b815250604051806040016040528060048152602001635553444360e01b815250610c6c565b6107fe610c7e565b610806610c7e565b610811600033610974565b5061083c7f189ab7a9244df0848122154315af71fe140f3db0fe014031783b0946b8c9d2e333610974565b506108473387610c86565b831561088d57845460ff60401b19168555604051600181527fc7f505b2f371ae2175ee4913f4499e1f2633a7b5936321eed1cdaeb6115181d29060200160405180910390a15b505050505050565b6105cb8383836001610cbc565b60006108ae84846106ad565b905060001981101561059257818110156108f957604051637dc7a0d960e11b81526001600160a01b038416600482015260248101829052604481018390526064015b60405180910390fd5b61059284848484036000610cbc565b6001600160a01b03831661093257604051634b637e8f60e11b8152600060048201526024016108f0565b6001600160a01b03821661095c5760405163ec442f0560e01b8152600060048201526024016108f0565b6105cb838383610da4565b6109718133610ee2565b50565b60006000805160206115cf83398151915261098f848461060c565b610a0f576000848152602082815260408083206001600160a01b03871684529091529020805460ff191660011790556109c53390565b6001600160a01b0316836001600160a01b0316857f2f8788117e7eff1d82e926ec794901d17c78024a50270940304540a733656f0d60405160405180910390a4600191505061044d565b600091505061044d565b60006000805160206115cf833981519152610a34848461060c565b15610a0f576000848152602082815260408083206001600160a01b0387168085529252808320805460ff1916905551339287917ff6391f5c32d9c69d2a47ea670b442974b53935d1edc7fd64eb21e047a839171b9190a4600191505061044d565b306001600160a01b037f0000000000000000000000000000000000000000000000000000000000000000161480610b1c57507f00000000000000000000000000000000000000000000000000000000000000006001600160a01b0316610b106000805160206115af833981519152546001600160a01b031690565b6001600160a01b031614155b15610b3a5760405163703e46dd60e11b815260040160405180910390fd5b565b7f189ab7a9244df0848122154315af71fe140f3db0fe014031783b0946b8c9d2e36105eb81610967565b816001600160a01b03166352d1902d6040518163ffffffff1660e01b8152600401602060405180830381865afa925050508015610bc0575060408051601f3d908101601f19168201909252610bbd91810190611432565b60015b610be857604051634c9c8ce360e01b81526001600160a01b03831660048201526024016108f0565b6000805160206115af8339815191528114610c1957604051632a87526960e21b8152600481018290526024016108f0565b6105cb8383610f1b565b306001600160a01b037f00000000000000000000000000000000000000000000000000000000000000001614610b3a5760405163703e46dd60e11b815260040160405180910390fd5b610c74610f71565b6105eb8282610fba565b610b3a610f71565b6001600160a01b038216610cb05760405163ec442f0560e01b8152600060048201526024016108f0565b6105eb60008383610da4565b60008051602061158f8339815191526001600160a01b038516610cf55760405163e602df0560e01b8152600060048201526024016108f0565b6001600160a01b038416610d1f57604051634a1406b160e11b8152600060048201526024016108f0565b6001600160a01b03808616600090815260018301602090815260408083209388168352929052208390558115610d9d57836001600160a01b0316856001600160a01b03167f8c5be1e5ebec7d5bd14f71427d1e84f3dd0314c0f7b2291e5b200ac8c7c3b92585604051610d9491815260200190565b60405180910390a35b5050505050565b60008051602061158f8339815191526001600160a01b038416610de05781816002016000828254610dd5919061144b565b90915550610e529050565b6001600160a01b03841660009081526020829052604090205482811015610e335760405163391434e360e21b81526001600160a01b038616600482015260248101829052604481018490526064016108f0565b6001600160a01b03851660009081526020839052604090209083900390555b6001600160a01b038316610e70576002810180548390039055610e8f565b6001600160a01b03831660009081526020829052604090208054830190555b826001600160a01b0316846001600160a01b03167fddf252ad1be2c89b69c2b068fc378daa952ba7f163c4a11628f55a4df523b3ef84604051610ed491815260200190565b60405180910390a350505050565b610eec828261060c565b6105eb5760405163e2517d3f60e01b81526001600160a01b0382166004820152602481018390526044016108f0565b610f248261100b565b6040516001600160a01b038316907fbc7cd75a20ee27fd9adebab32041f755214dbc6bffa90cc0225b39da2e5c2d3b90600090a2805115610f69576105cb8282611070565b6105eb6110e6565b7ff0c57e16840df040f15088dc2f81fe391c3923bec73e23a9662efc9c229c6a0054600160401b900460ff16610b3a57604051631afcd79f60e31b815260040160405180910390fd5b610fc2610f71565b60008051602061158f8339815191527f52c63247e1f47db19d5ce0460030c497f067ca4cebf71ba98eeadabe20bace03610ffc84826114b3565b506004810161059283826114b3565b806001600160a01b03163b60000361104157604051634c9c8ce360e01b81526001600160a01b03821660048201526024016108f0565b6000805160206115af83398151915280546001600160a01b0319166001600160a01b0392909216919091179055565b6060600080846001600160a01b03168460405161108d9190611572565b600060405180830381855af49150503d80600081146110c8576040519150601f19603f3d011682016040523d82523d6000602084013e6110cd565b606091505b50915091506110dd858383611105565b95945050505050565b3415610b3a5760405163b398979f60e01b815260040160405180910390fd5b60608261111a5761111582611161565b61054d565b815115801561113157506001600160a01b0384163b155b1561115a57604051639996b31560e01b81526001600160a01b03851660048201526024016108f0565b508061054d565b8051156111715780518082602001fd5b60405163d6bda27560e01b815260040160405180910390fd5b60006020828403121561119c57600080fd5b81356001600160e01b03198116811461054d57600080fd5b60005b838110156111cf5781810151838201526020016111b7565b50506000910152565b60208152600082518060208401526111f78160408501602087016111b4565b601f01601f19169190910160400192915050565b80356001600160a01b038116811461122257600080fd5b919050565b6000806040838503121561123a57600080fd5b6112438361120b565b946020939093013593505050565b60008060006060848603121561126657600080fd5b61126f8461120b565b925061127d6020850161120b565b929592945050506040919091013590565b6000602082840312156112a057600080fd5b5035919050565b600080604083850312156112ba57600080fd5b823591506112ca6020840161120b565b90509250929050565b634e487b7160e01b600052604160045260246000fd5b600080604083850312156112fc57600080fd5b6113058361120b565b9150602083013567ffffffffffffffff81111561132157600080fd5b8301601f8101851361133257600080fd5b803567ffffffffffffffff81111561134c5761134c6112d3565b604051601f8201601f19908116603f0116810167ffffffffffffffff8111828210171561137b5761137b6112d3565b60405281815282820160200187101561139357600080fd5b816020840160208301376000602083830101528093505050509250929050565b6000602082840312156113c557600080fd5b61054d8261120b565b600080604083850312156113e157600080fd5b6113ea8361120b565b91506112ca6020840161120b565b600181811c9082168061140c57607f821691505b60208210810361142c57634e487b7160e01b600052602260045260246000fd5b50919050565b60006020828403121561144457600080fd5b5051919050565b8082018082111561044d57634e487b7160e01b600052601160045260246000fd5b601f8211156105cb57806000526020600020601f840160051c810160208510156114935750805b601f840160051c820191505b81811015610d9d576000815560010161149f565b815167ffffffffffffffff8111156114cd576114cd6112d3565b6114e1816114db84546113f8565b8461146c565b6020601f82116001811461151557600083156114fd5750848201515b600019600385901b1c1916600184901b178455610d9d565b600084815260208120601f198516915b828110156115455787850151825560209485019460019092019101611525565b50848210156115635786840151600019600387901b60f8161c191681555b50505050600190811b01905550565b600082516115848184602087016111b4565b919091019291505056fe52c63247e1f47db19d5ce0460030c497f067ca4cebf71ba98eeadabe20bace00360894a13ba1a3210667c828492db98dca3e2076cc3735a920a3ca505d382bbc02dd7bc7dec4dceedda775e58dd541e08a116c6c53815c0bd028192f7b626800a2646970667358221220ba6ccf6328bb08f7d6aaf196f72cd95b6f3dfc2966c22fd01fafb6ef87ab619e64736f6c634300081c0033",
  "linkReferences": {},
  "deployedLinkReferences": {}
}