{
  "_format": "hh-sol-artifact-1",
  "contractName": "MyERC1155",
  "sourceName": "contracts/src/ERC1155.sol",
  "abi": [
    {
      "inputs": [],
      "stateMutability": "nonpayable",
      "type": "constructor"
    },
    {
      "inputs": [],
      "name": "AccessControlBadConfirmation",
      "type": "error"
    },
    {
      "inputs": [
        {
          "internalType": "address",
          "name": "account",
          "type": "address"
        },
        {
          "internalType": "bytes32",
          "name": "neededRole",
          "type": "bytes32"
        }
      ],
      "name": "AccessControlUnauthorizedAccount",
      "type": "error"
    },
    {
      "inputs": [
        {
          "internalType": "address",
          "name": "target",
          "type": "address"
        }
      ],
      "name": "AddressEmptyCode",
      "type": "error"
    },
    {
      "inputs": [],
      "name": "ECDSAInvalidSignature",
      "type": "error"
    },
    {
      "inputs": [
        {
          "internalType": "uint256",
          "name": "length",
          "type": "uint256"
        }
      ],
      "name": "ECDSAInvalidSignatureLength",
      "type": "error"
    },
    {
      "inputs": [
        {
          "internalType": "bytes32",
          "name": "s",
          "type": "bytes32"
        }
      ],
      "name": "ECDSAInvalidSignatureS",
      "type": "error"
    },
    {
      "inputs": [
        {
          "internalType": "address",
          "name": "sender",
          "type": "address"
        },
        {
          "internalType": "uint256",
          "name": "balance",
          "type": "uint256"
        },
        {
          "internalType": "uint256",
          "name": "needed",
          "type": "uint256"
        },
        {
          "internalType": "uint256",
          "name": "tokenId",
          "type": "uint256"
        }
      ],
      "name": "ERC1155InsufficientBalance",
      "type": "error"
    },
    {
      "inputs": [
        {
          "internalType": "address",
          "name": "approver",
          "type": "address"
        }
      ],
      "name": "ERC1155InvalidApprover",
      "type": "error"
    },
    {
      "inputs": [
        {
          "internalType": "uint256",
          "name": "idsLength",
          "type": "uint256"
        },
        {
          "internalType": "uint256",
          "name": "valuesLength",
          "type": "uint256"
        }
      ],
      "name": "ERC1155InvalidArrayLength",
      "type": "error"
    },
    {
      "inputs": [
        {
          "internalType": "address",
          "name": "operator",
          "type": "address"
        }
      ],
      "name": "ERC1155InvalidOperator",
      "type": "error"
    },
    {
      "inputs": [
        {
          "internalType": "address",
          "name": "receiver",
          "type": "address"
        }
      ],
      "name": "ERC1155InvalidReceiver",
      "type": "error"
    },
    {
      "inputs": [
        {
          "internalType": "address",
          "name": "sender",
          "type": "address"
        }
      ],
      "name": "ERC1155InvalidSender",
      "type": "error"
    },
    {
      "inputs": [
        {
          "internalType": "address",
          "name": "operator",
          "type": "address"
        },
        {
          "internalType": "address",
          "name": "owner",
          "type": "address"
        }
      ],
      "name": "ERC1155MissingApprovalForAll",
      "type": "error"
    },
    {
      "inputs": [
        {
          "internalType": "address",
          "name": "implementation",
          "type": "address"
        }
      ],
      "name": "ERC1967InvalidImplementation",
      "type": "error"
    },
    {
      "inputs": [],
      "name": "ERC1967NonPayable",
      "type": "error"
    },
    {
      "inputs": [],
      "name": "FailedCall",
      "type": "error"
    },
    {
      "inputs": [],
      "name": "InvalidInitialization",
      "type": "error"
    },
    {
      "inputs": [],
      "name": "NotInitializing",
      "type": "error"
    },
    {
      "inputs": [],
      "name": "UUPSUnauthorizedCallContext",
      "type": "error"
    },
    {
      "inputs": [
        {
          "internalType": "bytes32",
          "name": "slot",
          "type": "bytes32"
        }
      ],
      "name": "UUPSUnsupportedProxiableUUID",
      "type": "error"
    },
    {
      "anonymous": false,
      "inputs": [
        {
          "indexed": true,
          "internalType": "address",
          "name": "account",
          "type": "address"
        },
        {
          "indexed": true,
          "internalType": "address",
          "name": "operator",
          "type": "address"
        },
        {
          "indexed": false,
          "internalType": "bool",
          "name": "approved",
          "type": "bool"
        }
      ],
      "name": "ApprovalForAll",
      "type": "event"
    },
    {
      "anonymous": false,
      "inputs": [],
      "name": "EIP712DomainChanged",
      "type": "event"
    },
    {
      "anonymous": false,
      "inputs": [
        {
          "indexed": false,
          "internalType": "uint64",
          "name": "version",
          "type": "uint64"
        }
      ],
      "name": "Initialized",
      "type": "event"
    },
    {
      "anonymous": false,
      "inputs": [
        {
          "indexed": true,
          "internalType": "bytes32",
          "name": "role",
          "type": "bytes32"
        },
        {
          "indexed": true,
          "internalType": "bytes32",
          "name": "previousAdminRole",
          "type": "bytes32"
        },
        {
          "indexed": true,
          "internalType": "bytes32",
          "name": "newAdminRole",
          "type": "bytes32"
        }
      ],
      "name": "RoleAdminChanged",
      "type": "event"
    },
    {
      "anonymous": false,
      "inputs": [
        {
          "indexed": true,
          "internalType": "bytes32",
          "name": "role",
          "type": "bytes32"
        },
        {
          "indexed": true,
          "internalType": "address",
          "name": "account",
          "type": "address"
        },
        {
          "indexed": true,
          "internalType": "address",
          "name": "sender",
          "type": "address"
        }
      ],
      "name": "RoleGranted",
      "type": "event"
    },
    {
      "anonymous": false,
      "inputs": [
        {
          "indexed": true,
          "internalType": "bytes32",
          "name": "role",
          "type": "bytes32"
        },
        {
          "indexed": true,
          "internalType": "address",
          "name": "account",
          "type": "address"
        },
        {
          "indexed": true,
          "internalType": "address",
          "name": "sender",
          "type": "address"
        }
      ],
      "name": "RoleRevoked",
      "type": "event"
    },
    {
      "anonymous": false,
      "inputs": [
        {
          "indexed": true,
          "internalType": "address",
          "name": "operator",
          "type": "address"
        },
        {
          "indexed": true,
          "internalType": "address",
          "name": "from",
          "type": "address"
        },
        {
          "indexed": true,
          "internalType": "address",
          "name": "to",
          "type": "address"
        },
        {
          "indexed": false,
          "internalType": "uint256[]",
          "name": "ids",
          "type": "uint256[]"
        },
        {
          "indexed": false,
          "internalType": "uint256[]",
          "name": "values",
          "type": "uint256[]"
        }
      ],
      "name": "TransferBatch",
      "type": "event"
    },
    {
      "anonymous": false,
      "inputs": [
        {
          "indexed": true,
          "internalType": "address",
          "name": "operator",
          "type": "address"
        },
        {
          "indexed": true,
          "internalType": "address",
          "name": "from",
          "type": "address"
        },
        {
          "indexed": true,
          "internalType": "address",
          "name": "to",
          "type": "address"
        },
        {
          "indexed": false,
          "internalType": "uint256",
          "name": "id",
          "type": "uint256"
        },
        {
          "indexed": false,
          "internalType": "uint256",
          "name": "value",
          "type": "uint256"
        }
      ],
      "name": "TransferSingle",
      "type": "event"
    },
    {
      "anonymous": false,
      "inputs": [
        {
          "indexed": false,
          "internalType": "string",
          "name": "value",
          "type": "string"
        },
        {
          "indexed": true,
          "internalType": "uint256",
          "name": "id",
          "type": "uint256"
        }
      ],
      "name": "URI",
      "type": "event"
    },
    {
      "anonymous": false,
      "inputs": [
        {
          "indexed": true,
          "internalType": "address",
          "name": "implementation",
          "type": "address"
        }
      ],
      "name": "Upgraded",
      "type": "event"
    },
    {
      "inputs": [],
      "name": "DEFAULT_ADMIN_ROLE",
      "outputs": [
        {
          "internalType": "bytes32",
          "name": "",
          "type": "bytes32"
        }
      ],
      "stateMutability": "view",
      "type": "function"
    },
    {
      "inputs": [],
      "name": "MINTER_ROLE",
      "outputs": [
        {
          "internalType": "bytes32",
          "name": "",
          "type": "bytes32"
        }
      ],
      "stateMutability": "view",
      "type": "function"
    },
    {
      "inputs": [],
      "name": "PERMIT_TYPEHASH",
      "outputs": [
        {
          "internalType": "bytes32",
          "name": "",
          "type": "bytes32"
        }
      ],
      "stateMutability": "view",
      "type": "function"
    },
    {
      "inputs": [],
      "name": "UPGRADER_ROLE",
      "outputs": [
        {
          "internalType": "bytes32",
          "name": "",
          "type": "bytes32"
        }
      ],
      "stateMutability": "view",
      "type": "function"
    },
    {
      "inputs": [],
      "name": "UPGRADE_INTERFACE_VERSION",
      "outputs": [
        {
          "internalType": "string",
          "name": "",
          "type": "string"
        }
      ],
      "stateMutability": "view",
      "type": "function"
    },
    {
      "inputs": [
        {
          "internalType": "address",
          "name": "account",
          "type": "address"
        },
        {
          "internalType": "uint256",
          "name": "id",
          "type": "uint256"
        }
      ],
      "name": "balanceOf",
      "outputs": [
        {
          "internalType": "uint256",
          "name": "",
          "type": "uint256"
        }
      ],
      "stateMutability": "view",
      "type": "function"
    },
    {
      "inputs": [
        {
          "internalType": "address[]",
          "name": "accounts",
          "type": "address[]"
        },
        {
          "internalType": "uint256[]",
          "name": "ids",
          "type": "uint256[]"
        }
      ],
      "name": "balanceOfBatch",
      "outputs": [
        {
          "internalType": "uint256[]",
          "name": "",
          "type": "uint256[]"
        }
      ],
      "stateMutability": "view",
      "type": "function"
    },
    {
      "inputs": [
        {
          "internalType": "address",
          "name": "account",
          "type": "address"
        },
        {
          "internalType": "uint256",
          "name": "id",
          "type": "uint256"
        },
        {
          "internalType": "uint256",
          "name": "amount",
          "type": "uint256"
        }
      ],
      "name": "burn",
      "outputs": [],
      "stateMutability": "nonpayable",
      "type": "function"
    },
    {
      "inputs": [
        {
          "internalType": "address",
          "name": "account",
          "type": "address"
        },
        {
          "internalType": "uint256[]",
          "name": "ids",
          "type": "uint256[]"
        },
        {
          "internalType": "uint256[]",
          "name": "amounts",
          "type": "uint256[]"
        }
      ],
      "name": "burnBatchToken",
      "outputs": [],
      "stateMutability": "nonpayable",
      "type": "function"
    },
    {
      "inputs": [
        {
          "internalType": "address",
          "name": "account",
          "type": "address"
        },
        {
          "internalType": "uint256",
          "name": "id",
          "type": "uint256"
        },
        {
          "internalType": "uint256",
          "name": "amount",
          "type": "uint256"
        }
      ],
      "name": "burnToken",
      "outputs": [],
      "stateMutability": "nonpayable",
      "type": "function"
    },
    {
      "inputs": [],
      "name": "eip712Domain",
      "outputs": [
        {
          "internalType": "bytes1",
          "name": "fields",
          "type": "bytes1"
        },
        {
          "internalType": "string",
          "name": "name",
          "type": "string"
        },
        {
          "internalType": "string",
          "name": "version",
          "type": "string"
        },
        {
          "internalType": "uint256",
          "name": "chainId",
          "type": "uint256"
        },
        {
          "internalType": "address",
          "name": "verifyingContract",
          "type": "address"
        },
        {
          "internalType": "bytes32",
          "name": "salt",
          "type": "bytes32"
        },
        {
          "internalType": "uint256[]",
          "name": "extensions",
          "type": "uint256[]"
        }
      ],
      "stateMutability": "view",
      "type": "function"
    },
    {
      "inputs": [
        {
          "internalType": "bytes32",
          "name": "role",
          "type": "bytes32"
        }
      ],
      "name": "getRoleAdmin",
      "outputs": [
        {
          "internalType": "bytes32",
          "name": "",
          "type": "bytes32"
        }
      ],
      "stateMutability": "view",
      "type": "function"
    },
    {
      "inputs": [
        {
          "internalType": "bytes32",
          "name": "role",
          "type": "bytes32"
        },
        {
          "internalType": "address",
          "name": "account",
          "type": "address"
        }
      ],
      "name": "grantRole",
      "outputs": [],
      "stateMutability": "nonpayable",
      "type": "function"
    },
    {
      "inputs": [
        {
          "internalType": "bytes32",
          "name": "role",
          "type": "bytes32"
        },
        {
          "internalType": "address",
          "name": "account",
          "type": "address"
        }
      ],
      "name": "hasRole",
      "outputs": [
        {
          "internalType": "bool",
          "name": "",
          "type": "bool"
        }
      ],
      "stateMutability": "view",
      "type": "function"
    },
    {
      "inputs": [
        {
          "internalType": "string",
          "name": "_uri",
          "type": "string"
        },
        {
          "internalType": "address",
          "name": "_admin",
          "type": "address"
        }
      ],
      "name": "initialize",
      "outputs": [],
      "stateMutability": "nonpayable",
      "type": "function"
    },
    {
      "inputs": [
        {
          "internalType": "address",
          "name": "account",
          "type": "address"
        },
        {
          "internalType": "address",
          "name": "operator",
          "type": "address"
        }
      ],
      "name": "isApprovedForAll",
      "outputs": [
        {
          "internalType": "bool",
          "name": "",
          "type": "bool"
        }
      ],
      "stateMutability": "view",
      "type": "function"
    },
    {
      "inputs": [
        {
          "internalType": "address",
          "name": "to",
          "type": "address"
        },
        {
          "internalType": "uint256[]",
          "name": "ids",
          "type": "uint256[]"
        },
        {
          "internalType": "uint256[]",
          "name": "amounts",
          "type": "uint256[]"
        },
        {
          "internalType": "bytes",
          "name": "data",
          "type": "bytes"
        }
      ],
      "name": "mintBatchToken",
      "outputs": [],
      "stateMutability": "nonpayable",
      "type": "function"
    },
    {
      "inputs": [
        {
          "internalType": "address",
          "name": "to",
          "type": "address"
        },
        {
          "internalType": "uint256",
          "name": "id",
          "type": "uint256"
        },
        {
          "internalType": "uint256",
          "name": "amount",
          "type": "uint256"
        },
        {
          "internalType": "bytes",
          "name": "data",
          "type": "bytes"
        }
      ],
      "name": "mintToken",
      "outputs": [],
      "stateMutability": "nonpayable",
      "type": "function"
    },
    {
      "inputs": [
        {
          "internalType": "address",
          "name": "",
          "type": "address"
        }
      ],
      "name": "nonces",
      "outputs": [
        {
          "internalType": "uint256",
          "name": "",
          "type": "uint256"
        }
      ],
      "stateMutability": "view",
      "type": "function"
    },
    {
      "inputs": [
        {
          "internalType": "address",
          "name": "owner",
          "type": "address"
        },
        {
          "internalType": "address",
          "name": "operator",
          "type": "address"
        },
        {
          "internalType": "bool",
          "name": "approved",
          "type": "bool"
        },
        {
          "internalType": "uint256",
          "name": "deadline",
          "type": "uint256"
        },
        {
          "internalType": "uint8",
          "name": "v",
          "type": "uint8"
        },
        {
          "internalType": "bytes32",
          "name": "r",
          "type": "bytes32"
        },
        {
          "internalType": "bytes32",
          "name": "s",
          "type": "bytes32"
        }
      ],
      "name": "permit",
      "outputs": [],
      "stateMutability": "nonpayable",
      "type": "function"
    },
    {
      "inputs": [],
      "name": "proxiableUUID",
      "outputs": [
        {
          "internalType": "bytes32",
          "name": "",
          "type": "bytes32"
        }
      ],
      "stateMutability": "view",
      "type": "function"
    },
    {
      "inputs": [
        {
          "internalType": "bytes32",
          "name": "role",
          "type": "bytes32"
        },
        {
          "internalType": "address",
          "name": "callerConfirmation",
          "type": "address"
        }
      ],
      "name": "renounceRole",
      "outputs": [],
      "stateMutability": "nonpayable",
      "type": "function"
    },
    {
      "inputs": [
        {
          "internalType": "bytes32",
          "name": "role",
          "type": "bytes32"
        },
        {
          "internalType": "address",
          "name": "account",
          "type": "address"
        }
      ],
      "name": "revokeRole",
      "outputs": [],
      "stateMutability": "nonpayable",
      "type": "function"
    },
    {
      "inputs": [
        {
          "internalType": "address",
          "name": "from",
          "type": "address"
        },
        {
          "internalType": "address",
          "name": "to",
          "type": "address"
        },
        {
          "internalType": "uint256[]",
          "name": "ids",
          "type": "uint256[]"
        },
        {
          "internalType": "uint256[]",
          "name": "values",
          "type": "uint256[]"
        },
        {
          "internalType": "bytes",
          "name": "data",
          "type": "bytes"
        }
      ],
      "name": "safeBatchTransferFrom",
      "outputs": [],
      "stateMutability": "nonpayable",
      "type": "function"
    },
    {
      "inputs": [
        {
          "internalType": "address",
          "name": "from",
          "type": "address"
        },
        {
          "internalType": "address",
          "name": "to",
          "type": "address"
        },
        {
          "internalType": "uint256",
          "name": "id",
          "type": "uint256"
        },
        {
          "internalType": "uint256",
          "name": "value",
          "type": "uint256"
        },
        {
          "internalType": "bytes",
          "name": "data",
          "type": "bytes"
        }
      ],
      "name": "safeTransferFrom",
      "outputs": [],
      "stateMutability": "nonpayable",
      "type": "function"
    },
    {
      "inputs": [
        {
          "internalType": "address",
          "name": "operator",
          "type": "address"
        },
        {
          "internalType": "bool",
          "name": "approved",
          "type": "bool"
        }
      ],
      "name": "setApprovalForAll",
      "outputs": [],
      "stateMutability": "nonpayable",
      "type": "function"
    },
    {
      "inputs": [
        {
          "internalType": "bytes4",
          "name": "interfaceId",
          "type": "bytes4"
        }
      ],
      "name": "supportsInterface",
      "outputs": [
        {
          "internalType": "bool",
          "name": "",
          "type": "bool"
        }
      ],
      "stateMutability": "view",
      "type": "function"
    },
    {
      "inputs": [
        {
          "internalType": "address",
          "name": "newImplementation",
          "type": "address"
        },
        {
          "internalType": "bytes",
          "name": "data",
          "type": "bytes"
        }
      ],
      "name": "upgradeToAndCall",
      "outputs": [],
      "stateMutability": "payable",
      "type": "function"
    },
    {
      "inputs": [
        {
          "internalType": "uint256",
          "name": "",
          "type": "uint256"
        }
      ],
      "name": "uri",
      "outputs": [
        {
          "internalType": "string",
          "name": "",
          "type": "string"
        }
      ],
      "stateMutability": "view",
      "type": "function"
    }
  ],
  "bytecode": "0x60a06040523060805234801561001457600080fd5b5061001d610022565b6100d4565b7ff0c57e16840df040f15088dc2f81fe391c3923bec73e23a9662efc9c229c6a00805468010000000000000000900460ff16156100725760405163f92ee8a960e01b815260040160405180910390fd5b80546001600160401b03908116146100d15780546001600160401b0319166001600160401b0390811782556040519081527fc7f505b2f371ae2175ee4913f4499e1f2633a7b5936321eed1cdaeb6115181d29060200160405180910390a15b50565b608051612c9a6100fd6000396000818161109b015281816110c401526112290152612c9a6000f3fe6080604052600436106101c15760003560e01c80637ecebe00116100f7578063d539139311610095578063f242432a11610064578063f242432a1461053e578063f51cc7dd1461055e578063f5298aca1461057e578063f72c0d8b1461059e57600080fd5b8063d5391393146104bc578063d547741f146104de578063e985e9c5146104fe578063ed8c59381461051e57600080fd5b8063a217fddf116100d1578063a217fddf14610436578063a22cb4651461044b578063ad3cb1cc1461046b578063af2946ce1461049c57600080fd5b80637ecebe00146103c157806384b0196e146103ee57806391d148541461041657600080fd5b806336568abe1161016457806352d1902d1161013e57806352d1902d1461034c5780635d0a2951146103615780635e315f8b146103815780637ab4339d146103a157600080fd5b806336568abe146102ec5780634e1273f41461030c5780634f1ef2861461033957600080fd5b8063248a9ca3116101a0578063248a9ca3146102565780632eb2c2d6146102765780632f2ff15d1461029857806330adf81f146102b857600080fd5b8062fdd58e146101c657806301ffc9a7146101f95780630e89341c14610229575b600080fd5b3480156101d257600080fd5b506101e66101e136600461210f565b6105d2565b6040519081526020015b60405180910390f35b34801561020557600080fd5b5061021961021436600461214f565b610609565b60405190151581526020016101f0565b34801561023557600080fd5b5061024961024436600461216c565b610614565b6040516101f091906121d5565b34801561026257600080fd5b506101e661027136600461216c565b6106d9565b34801561028257600080fd5b50610296610291366004612339565b6106fb565b005b3480156102a457600080fd5b506102966102b33660046123ec565b610767565b3480156102c457600080fd5b506101e67f7bf72c3e57bc00556754c7454ead7d72d1c0e263909e7c643fbc0d1e0f3c3e7481565b3480156102f857600080fd5b506102966103073660046123ec565b610789565b34801561031857600080fd5b5061032c610327366004612418565b6107c1565b6040516101f0919061251b565b61029661034736600461252e565b61088d565b34801561035857600080fd5b506101e66108ac565b34801561036d57600080fd5b5061029661037c366004612571565b6108c9565b34801561038d57600080fd5b5061029661039c3660046125e8565b6108ec565b3480156103ad57600080fd5b506102966103bc366004612648565b610917565b3480156103cd57600080fd5b506101e66103dc3660046126a0565b60006020819052908152604090205481565b3480156103fa57600080fd5b50610403610acc565b6040516101f097969594939291906126bb565b34801561042257600080fd5b506102196104313660046123ec565b610b78565b34801561044257600080fd5b506101e6600081565b34801561045757600080fd5b5061029661046636600461273b565b610bb0565b34801561047757600080fd5b50610249604051806040016040528060058152602001640352e302e360dc1b81525081565b3480156104a857600080fd5b506102966104b7366004612765565b610bbb565b3480156104c857600080fd5b506101e6600080516020612c2583398151915281565b3480156104ea57600080fd5b506102966104f93660046123ec565b610bdf565b34801561050a57600080fd5b506102196105193660046127ef565b610bfb565b34801561052a57600080fd5b50610296610539366004612819565b610c48565b34801561054a57600080fd5b5061029661055936600461284c565b610c6b565b34801561056a57600080fd5b506102966105793660046128a4565b610cca565b34801561058a57600080fd5b50610296610599366004612819565b610e54565b3480156105aa57600080fd5b506101e67f189ab7a9244df0848122154315af71fe140f3db0fe014031783b0946b8c9d2e381565b6000818152600080516020612c05833981519152602090815260408083206001600160a01b03861684529091529020545b92915050565b600061060382610edd565b7f88be536d5240c274a3b1d3a1be54482fd9caa294f08c62a7cde569f49a3c45028054606091600080516020612c05833981519152916106539061291e565b80601f016020809104026020016040519081016040528092919081815260200182805461067f9061291e565b80156106cc5780601f106106a1576101008083540402835291602001916106cc565b820191906000526020600020905b8154815290600101906020018083116106af57829003601f168201915b5050505050915050919050565b6000908152600080516020612c45833981519152602052604090206001015490565b336001600160a01b038616811480159061071c575061071a8682610bfb565b155b156107525760405163711bec9160e11b81526001600160a01b038083166004830152871660248201526044015b60405180910390fd5b61075f8686868686610f02565b505050505050565b610770826106d9565b61077981610f62565b6107838383610f6f565b50505050565b6001600160a01b03811633146107b25760405163334bd91960e11b815260040160405180910390fd5b6107bc8282611014565b505050565b606081518351146107f25781518351604051635b05999160e01b815260048101929092526024820152604401610749565b600083516001600160401b0381111561080d5761080d6121e8565b604051908082528060200260200182016040528015610836578160200160208202803683370190505b50905060005b845181101561088557602080820286010151610860906020808402870101516105d2565b82828151811061087257610872612958565b602090810291909101015260010161083c565b509392505050565b610895611090565b61089e82611137565b6108a88282611161565b5050565b60006108b661121e565b50600080516020612be583398151915290565b600080516020612c258339815191526108e181610f62565b610783848484611267565b600080516020612c2583398151915261090481610f62565b610910858585856112ad565b5050505050565b7ff0c57e16840df040f15088dc2f81fe391c3923bec73e23a9662efc9c229c6a008054600160401b810460ff1615906001600160401b031660008115801561095c5750825b90506000826001600160401b031660011480156109785750303b155b905081158015610986575080155b156109a45760405163f92ee8a960e01b815260040160405180910390fd5b845467ffffffffffffffff1916600117855583156109ce57845460ff60401b1916600160401b1785555b6109d78761130a565b6109df61131b565b6109e761131b565b610a2d6040518060400160405280600b81526020016a4d79546f6b656e3131353560a81b815250604051806040016040528060018152602001603160f81b815250611323565b610a38600087610f6f565b50610a51600080516020612c2583398151915287610f6f565b50610a7c7f189ab7a9244df0848122154315af71fe140f3db0fe014031783b0946b8c9d2e387610f6f565b508315610ac357845460ff60401b19168555604051600181527fc7f505b2f371ae2175ee4913f4499e1f2633a7b5936321eed1cdaeb6115181d29060200160405180910390a15b50505050505050565b60006060808280808381600080516020612bc58339815191528054909150158015610af957506001810154155b610b3d5760405162461bcd60e51b81526020600482015260156024820152741152540dcc4c8e88155b9a5b9a5d1a585b1a5e9959605a1b6044820152606401610749565b610b45611335565b610b4d6113f8565b60408051600080825260208201909252600f60f81b9c939b5091995046985030975095509350915050565b6000918252600080516020612c45833981519152602090815260408084206001600160a01b0393909316845291905290205460ff1690565b6108a8338383611437565b600080516020612c25833981519152610bd381610f62565b610910858585856114df565b610be8826106d9565b610bf181610f62565b6107838383611014565b6001600160a01b0391821660009081527f88be536d5240c274a3b1d3a1be54482fd9caa294f08c62a7cde569f49a3c45016020908152604080832093909416825291909152205460ff1690565b600080516020612c25833981519152610c6081610f62565b610783848484611517565b336001600160a01b0386168114801590610c8c5750610c8a8682610bfb565b155b15610cbd5760405163711bec9160e11b81526001600160a01b03808316600483015287166024820152604401610749565b61075f868686868661157f565b83421115610d1a5760405162461bcd60e51b815260206004820152601860248201527f5065726d69743a206578706972656420646561646c696e6500000000000000006044820152606401610749565b6001600160a01b038781166000818152602081815260408083205481517f7bf72c3e57bc00556754c7454ead7d72d1c0e263909e7c643fbc0d1e0f3c3e748185015280830195909552948b166060850152891515608085015260a0840185905260c08085018a90528151808603909101815260e09094019052825192019190912090610da582611604565b90506000610db582888888611631565b90508a6001600160a01b0316816001600160a01b031614610e185760405162461bcd60e51b815260206004820152601960248201527f5065726d69743a20696e76616c6964207369676e6174757265000000000000006044820152606401610749565b610e2384600161296e565b6001600160a01b038c16600090815260208190526040902055610e478b8b8b611437565b5050505050505050505050565b6001600160a01b038316331480610e705750610e708333610bfb565b610ed25760405162461bcd60e51b815260206004820152602d60248201527f4d79546f6b656e313135353a2063616c6c6572206973206e6f74206f776e657260448201526c081b9bdc88185c1c1c9bdd9959609a1b6064820152608401610749565b6107bc838383611517565b60006001600160e01b03198216637965db0b60e01b148061060357506106038261165f565b6001600160a01b038416610f2c57604051632bfa23e760e11b815260006004820152602401610749565b6001600160a01b038516610f5557604051626a0d4560e21b815260006004820152602401610749565b61091085858585856116af565b610f6c8133611702565b50565b6000600080516020612c45833981519152610f8a8484610b78565b61100a576000848152602082815260408083206001600160a01b03871684529091529020805460ff19166001179055610fc03390565b6001600160a01b0316836001600160a01b0316857f2f8788117e7eff1d82e926ec794901d17c78024a50270940304540a733656f0d60405160405180910390a46001915050610603565b6000915050610603565b6000600080516020612c4583398151915261102f8484610b78565b1561100a576000848152602082815260408083206001600160a01b0387168085529252808320805460ff1916905551339287917ff6391f5c32d9c69d2a47ea670b442974b53935d1edc7fd64eb21e047a839171b9190a46001915050610603565b306001600160a01b037f000000000000000000000000000000000000000000000000000000000000000016148061111757507f00000000000000000000000000000000000000000000000000000000000000006001600160a01b031661110b600080516020612be5833981519152546001600160a01b031690565b6001600160a01b031614155b156111355760405163703e46dd60e11b815260040160405180910390fd5b565b7f189ab7a9244df0848122154315af71fe140f3db0fe014031783b0946b8c9d2e36108a881610f62565b816001600160a01b03166352d1902d6040518163ffffffff1660e01b8152600401602060405180830381865afa9250505080156111bb575060408051601f3d908101601f191682019092526111b89181019061298f565b60015b6111e357604051634c9c8ce360e01b81526001600160a01b0383166004820152602401610749565b600080516020612be5833981519152811461121457604051632a87526960e21b815260048101829052602401610749565b6107bc838361173b565b306001600160a01b037f000000000000000000000000000000000000000000000000000000000000000016146111355760405163703e46dd60e11b815260040160405180910390fd5b6001600160a01b03831661129057604051626a0d4560e21b815260006004820152602401610749565b6107bc8360008484604051806020016040528060008152506116af565b6001600160a01b0384166112d757604051632bfa23e760e11b815260006004820152602401610749565b6040805160018082526020820186905281830190815260608201859052608082019092529061075f6000878484876116af565b611312611791565b610f6c816117da565b611135611791565b61132b611791565b6108a882826117eb565b7fa16a46d94261c7517cc8ff89f61c0ce93598e3c849801011dee649a6a557d1028054606091600080516020612bc5833981519152916113749061291e565b80601f01602080910402602001604051908101604052809291908181526020018280546113a09061291e565b80156113ed5780601f106113c2576101008083540402835291602001916113ed565b820191906000526020600020905b8154815290600101906020018083116113d057829003601f168201915b505050505091505090565b7fa16a46d94261c7517cc8ff89f61c0ce93598e3c849801011dee649a6a557d1038054606091600080516020612bc5833981519152916113749061291e565b600080516020612c058339815191526001600160a01b03831661146f5760405162ced3e160e81b815260006004820152602401610749565b6001600160a01b038481166000818152600184016020908152604080832094881680845294825291829020805460ff191687151590811790915591519182527f17307eab39ab6107e8899845ad3d59bd9653f200f220920489ca2b5937696c31910160405180910390a350505050565b6001600160a01b03841661150957604051632bfa23e760e11b815260006004820152602401610749565b6107836000858585856116af565b6001600160a01b03831661154057604051626a0d4560e21b815260006004820152602401610749565b604080516001808252602082018590528183019081526060820184905260a08201909252600060808201818152919291610910918791859085906116af565b6001600160a01b0384166115a957604051632bfa23e760e11b815260006004820152602401610749565b6001600160a01b0385166115d257604051626a0d4560e21b815260006004820152602401610749565b60408051600180825260208201869052818301908152606082018590526080820190925290610ac387878484876116af565b600061060361161161184c565b8360405161190160f01b8152600281019290925260228201526042902090565b6000806000806116438888888861185b565b925092509250611653828261192a565b50909695505050505050565b60006001600160e01b03198216636cdb3d1360e11b148061169057506001600160e01b031982166303a24d0760e21b145b8061060357506301ffc9a760e01b6001600160e01b0319831614610603565b6116bb858585856119e3565b6001600160a01b0384161561091057825133906001036116f457602084810151908401516116ed838989858589611c08565b505061075f565b61075f818787878787611d2c565b61170c8282610b78565b6108a85760405163e2517d3f60e01b81526001600160a01b038216600482015260248101839052604401610749565b61174482611e15565b6040516001600160a01b038316907fbc7cd75a20ee27fd9adebab32041f755214dbc6bffa90cc0225b39da2e5c2d3b90600090a2805115611789576107bc8282611e7a565b6108a8611ef0565b7ff0c57e16840df040f15088dc2f81fe391c3923bec73e23a9662efc9c229c6a0054600160401b900460ff1661113557604051631afcd79f60e31b815260040160405180910390fd5b6117e2611791565b610f6c81611f0f565b6117f3611791565b600080516020612bc58339815191527fa16a46d94261c7517cc8ff89f61c0ce93598e3c849801011dee649a6a557d10261182d84826129ef565b506003810161183c83826129ef565b5060008082556001909101555050565b6000611856611f49565b905090565b600080807f7fffffffffffffffffffffffffffffff5d576e7357a4501ddfe92f46681b20a08411156118965750600091506003905082611920565b604080516000808252602082018084528a905260ff891692820192909252606081018790526080810186905260019060a0016020604051602081039080840390855afa1580156118ea573d6000803e3d6000fd5b5050604051601f1901519150506001600160a01b03811661191657506000925060019150829050611920565b9250600091508190505b9450945094915050565b600082600381111561193e5761193e612aad565b03611947575050565b600182600381111561195b5761195b612aad565b036119795760405163f645eedf60e01b815260040160405180910390fd5b600282600381111561198d5761198d612aad565b036119ae5760405163fce698f760e01b815260048101829052602401610749565b60038260038111156119c2576119c2612aad565b036108a8576040516335e2f38360e21b815260048101829052602401610749565b80518251600080516020612c058339815191529114611a225782518251604051635b05999160e01b815260048101929092526024820152604401610749565b3360005b8451811015611b28576020818102868101820151908601909101516001600160a01b03891615611ad9576000828152602086815260408083206001600160a01b038d16845290915290205481811015611ab2576040516303dee4c560e01b81526001600160a01b038b166004820152602481018290526044810183905260648101849052608401610749565b6000838152602087815260408083206001600160a01b038e16845290915290209082900390555b6001600160a01b03881615611b1e576000828152602086815260408083206001600160a01b038c16845290915281208054839290611b1890849061296e565b90915550505b5050600101611a26565b508351600103611ba95760208401516000906020850151909150866001600160a01b0316886001600160a01b0316846001600160a01b03167fc3d58168c5ae7397731d063d5bbf3d657854427343f4c083240f7aacaa2d0f628585604051611b9a929190918252602082015260400190565b60405180910390a4505061075f565b846001600160a01b0316866001600160a01b0316826001600160a01b03167f4a39dc06d4c0dbc64b70af90fd698a233a518aa5d07e595d983b8c0526c8f7fb8787604051611bf8929190612ac3565b60405180910390a4505050505050565b6001600160a01b0384163b1561075f5760405163f23a6e6160e01b81526001600160a01b0385169063f23a6e6190611c4c9089908990889088908890600401612ae8565b6020604051808303816000875af1925050508015611c87575060408051601f3d908101601f19168201909252611c8491810190612b2d565b60015b611cf0573d808015611cb5576040519150601f19603f3d011682016040523d82523d6000602084013e611cba565b606091505b508051600003611ce857604051632bfa23e760e11b81526001600160a01b0386166004820152602401610749565b805181602001fd5b6001600160e01b0319811663f23a6e6160e01b14610ac357604051632bfa23e760e11b81526001600160a01b0386166004820152602401610749565b6001600160a01b0384163b1561075f5760405163bc197c8160e01b81526001600160a01b0385169063bc197c8190611d709089908990889088908890600401612b4a565b6020604051808303816000875af1925050508015611dab575060408051601f3d908101601f19168201909252611da891810190612b2d565b60015b611dd9573d808015611cb5576040519150601f19603f3d011682016040523d82523d6000602084013e611cba565b6001600160e01b0319811663bc197c8160e01b14610ac357604051632bfa23e760e11b81526001600160a01b0386166004820152602401610749565b806001600160a01b03163b600003611e4b57604051634c9c8ce360e01b81526001600160a01b0382166004820152602401610749565b600080516020612be583398151915280546001600160a01b0319166001600160a01b0392909216919091179055565b6060600080846001600160a01b031684604051611e979190612ba8565b600060405180830381855af49150503d8060008114611ed2576040519150601f19603f3d011682016040523d82523d6000602084013e611ed7565b606091505b5091509150611ee7858383611fbd565b95945050505050565b34156111355760405163b398979f60e01b815260040160405180910390fd5b600080516020612c058339815191527f88be536d5240c274a3b1d3a1be54482fd9caa294f08c62a7cde569f49a3c45026107bc83826129ef565b60007f8b73c3c69bb8fe3d512ecc4cf759cc79239f7b179b0ffacaa9a75d522b39400f611f7461201c565b611f7c612086565b60408051602081019490945283019190915260608201524660808201523060a082015260c00160405160208183030381529060405280519060200120905090565b606082611fd257611fcd826120ca565b612015565b8151158015611fe957506001600160a01b0384163b155b1561201257604051639996b31560e01b81526001600160a01b0385166004820152602401610749565b50805b9392505050565b6000600080516020612bc583398151915281612036611335565b80519091501561204e57805160209091012092915050565b8154801561205d579392505050565b7fc5d2460186f7233c927e7db2dcc703c0e500b653ca82273b7bfad8045d85a470935050505090565b6000600080516020612bc5833981519152816120a06113f8565b8051909150156120b857805160209091012092915050565b6001820154801561205d579392505050565b8051156120da5780518082602001fd5b60405163d6bda27560e01b815260040160405180910390fd5b80356001600160a01b038116811461210a57600080fd5b919050565b6000806040838503121561212257600080fd5b61212b836120f3565b946020939093013593505050565b6001600160e01b031981168114610f6c57600080fd5b60006020828403121561216157600080fd5b813561201581612139565b60006020828403121561217e57600080fd5b5035919050565b60005b838110156121a0578181015183820152602001612188565b50506000910152565b600081518084526121c1816020860160208601612185565b601f01601f19169290920160200192915050565b60208152600061201560208301846121a9565b634e487b7160e01b600052604160045260246000fd5b604051601f8201601f191681016001600160401b0381118282101715612226576122266121e8565b604052919050565b60006001600160401b03821115612247576122476121e8565b5060051b60200190565b600082601f83011261226257600080fd5b81356122756122708261222e565b6121fe565b8082825260208201915060208360051b86010192508583111561229757600080fd5b602085015b838110156122b457803583526020928301920161229c565b5095945050505050565b6000806001600160401b038411156122d8576122d86121e8565b50601f8301601f19166020016122ed816121fe565b91505082815283838301111561230257600080fd5b828260208301376000602084830101529392505050565b600082601f83011261232a57600080fd5b612015838335602085016122be565b600080600080600060a0868803121561235157600080fd5b61235a866120f3565b9450612368602087016120f3565b935060408601356001600160401b0381111561238357600080fd5b61238f88828901612251565b93505060608601356001600160401b038111156123ab57600080fd5b6123b788828901612251565b92505060808601356001600160401b038111156123d357600080fd5b6123df88828901612319565b9150509295509295909350565b600080604083850312156123ff57600080fd5b8235915061240f602084016120f3565b90509250929050565b6000806040838503121561242b57600080fd5b82356001600160401b0381111561244157600080fd5b8301601f8101851361245257600080fd5b80356124606122708261222e565b8082825260208201915060208360051b85010192508783111561248257600080fd5b6020840193505b828410156124ab5761249a846120f3565b825260209384019390910190612489565b945050505060208301356001600160401b038111156124c957600080fd5b6124d585828601612251565b9150509250929050565b600081518084526020840193506020830160005b828110156125115781518652602095860195909101906001016124f3565b5093949350505050565b60208152600061201560208301846124df565b6000806040838503121561254157600080fd5b61254a836120f3565b915060208301356001600160401b0381111561256557600080fd5b6124d585828601612319565b60008060006060848603121561258657600080fd5b61258f846120f3565b925060208401356001600160401b038111156125aa57600080fd5b6125b686828701612251565b92505060408401356001600160401b038111156125d257600080fd5b6125de86828701612251565b9150509250925092565b600080600080608085870312156125fe57600080fd5b612607856120f3565b9350602085013592506040850135915060608501356001600160401b0381111561263057600080fd5b61263c87828801612319565b91505092959194509250565b6000806040838503121561265b57600080fd5b82356001600160401b0381111561267157600080fd5b8301601f8101851361268257600080fd5b612691858235602084016122be565b92505061240f602084016120f3565b6000602082840312156126b257600080fd5b612015826120f3565b60ff60f81b8816815260e0602082015260006126da60e08301896121a9565b82810360408401526126ec81896121a9565b606084018890526001600160a01b038716608085015260a0840186905283810360c0850152905061271d81856124df565b9a9950505050505050505050565b8035801515811461210a57600080fd5b6000806040838503121561274e57600080fd5b612757836120f3565b915061240f6020840161272b565b6000806000806080858703121561277b57600080fd5b612784856120f3565b935060208501356001600160401b0381111561279f57600080fd5b6127ab87828801612251565b93505060408501356001600160401b038111156127c757600080fd5b6127d387828801612251565b92505060608501356001600160401b0381111561263057600080fd5b6000806040838503121561280257600080fd5b61280b836120f3565b915061240f602084016120f3565b60008060006060848603121561282e57600080fd5b612837846120f3565b95602085013595506040909401359392505050565b600080600080600060a0868803121561286457600080fd5b61286d866120f3565b945061287b602087016120f3565b9350604086013592506060860135915060808601356001600160401b038111156123d357600080fd5b600080600080600080600060e0888a0312156128bf57600080fd5b6128c8886120f3565b96506128d6602089016120f3565b95506128e46040890161272b565b945060608801359350608088013560ff8116811461290157600080fd5b9699959850939692959460a0840135945060c09093013592915050565b600181811c9082168061293257607f821691505b60208210810361295257634e487b7160e01b600052602260045260246000fd5b50919050565b634e487b7160e01b600052603260045260246000fd5b8082018082111561060357634e487b7160e01b600052601160045260246000fd5b6000602082840312156129a157600080fd5b5051919050565b601f8211156107bc57806000526020600020601f840160051c810160208510156129cf5750805b601f840160051c820191505b8181101561091057600081556001016129db565b81516001600160401b03811115612a0857612a086121e8565b612a1c81612a16845461291e565b846129a8565b6020601f821160018114612a505760008315612a385750848201515b600019600385901b1c1916600184901b178455610910565b600084815260208120601f198516915b82811015612a805787850151825560209485019460019092019101612a60565b5084821015612a9e5786840151600019600387901b60f8161c191681555b50505050600190811b01905550565b634e487b7160e01b600052602160045260246000fd5b604081526000612ad660408301856124df565b8281036020840152611ee781856124df565b6001600160a01b03868116825285166020820152604081018490526060810183905260a060808201819052600090612b22908301846121a9565b979650505050505050565b600060208284031215612b3f57600080fd5b815161201581612139565b6001600160a01b0386811682528516602082015260a060408201819052600090612b76908301866124df565b8281036060840152612b8881866124df565b90508281036080840152612b9c81856121a9565b98975050505050505050565b60008251612bba818460208701612185565b919091019291505056fea16a46d94261c7517cc8ff89f61c0ce93598e3c849801011dee649a6a557d100360894a13ba1a3210667c828492db98dca3e2076cc3735a920a3ca505d382bbc88be536d5240c274a3b1d3a1be54482fd9caa294f08c62a7cde569f49a3c45009f2df0fed2c77648de5860a4cc508cd0818c85b8b8a1ab4ceeef8d981c8956a602dd7bc7dec4dceedda775e58dd541e08a116c6c53815c0bd028192f7b626800a264697066735822122011780d46618b05cad492b3884e50deedac3ea1a88fd3e1330f50bc8e5f57861364736f6c634300081c0033",
  "linkReferences": {},
  "deployedLinkReferences": {}
}