{
  "_format": "hh-sol-artifact-1",
  "contractName": "MyERC721",
  "sourceName": "contracts/src/ERC721.sol",
  "abi": [
    {
      "inputs": [],
      "stateMutability": "nonpayable",
      "type": "constructor"
    },
    {
      "inputs": [],
      "name": "AccessControlBadConfirmation",
      "type": "error"
    },
    {
      "inputs": [
        {
          "internalType": "address",
          "name": "account",
          "type": "address"
        },
        {
          "internalType": "bytes32",
          "name": "neededRole",
          "type": "bytes32"
        }
      ],
      "name": "AccessControlUnauthorizedAccount",
      "type": "error"
    },
    {
      "inputs": [
        {
          "internalType": "address",
          "name": "target",
          "type": "address"
        }
      ],
      "name": "AddressEmptyCode",
      "type": "error"
    },
    {
      "inputs": [],
      "name": "ECDSAInvalidSignature",
      "type": "error"
    },
    {
      "inputs": [
        {
          "internalType": "uint256",
          "name": "length",
          "type": "uint256"
        }
      ],
      "name": "ECDSAInvalidSignatureLength",
      "type": "error"
    },
    {
      "inputs": [
        {
          "internalType": "bytes32",
          "name": "s",
          "type": "bytes32"
        }
      ],
      "name": "ECDSAInvalidSignatureS",
      "type": "error"
    },
    {
      "inputs": [
        {
          "internalType": "address",
          "name": "implementation",
          "type": "address"
        }
      ],
      "name": "ERC1967InvalidImplementation",
      "type": "error"
    },
    {
      "inputs": [],
      "name": "ERC1967NonPayable",
      "type": "error"
    },
    {
      "inputs": [
        {
          "internalType": "address",
          "name": "sender",
          "type": "address"
        },
        {
          "internalType": "uint256",
          "name": "tokenId",
          "type": "uint256"
        },
        {
          "internalType": "address",
          "name": "owner",
          "type": "address"
        }
      ],
      "name": "ERC721IncorrectOwner",
      "type": "error"
    },
    {
      "inputs": [
        {
          "internalType": "address",
          "name": "operator",
          "type": "address"
        },
        {
          "internalType": "uint256",
          "name": "tokenId",
          "type": "uint256"
        }
      ],
      "name": "ERC721InsufficientApproval",
      "type": "error"
    },
    {
      "inputs": [
        {
          "internalType": "address",
          "name": "approver",
          "type": "address"
        }
      ],
      "name": "ERC721InvalidApprover",
      "type": "error"
    },
    {
      "inputs": [
        {
          "internalType": "address",
          "name": "operator",
          "type": "address"
        }
      ],
      "name": "ERC721InvalidOperator",
      "type": "error"
    },
    {
      "inputs": [
        {
          "internalType": "address",
          "name": "owner",
          "type": "address"
        }
      ],
      "name": "ERC721InvalidOwner",
      "type": "error"
    },
    {
      "inputs": [
        {
          "internalType": "address",
          "name": "receiver",
          "type": "address"
        }
      ],
      "name": "ERC721InvalidReceiver",
      "type": "error"
    },
    {
      "inputs": [
        {
          "internalType": "address",
          "name": "sender",
          "type": "address"
        }
      ],
      "name": "ERC721InvalidSender",
      "type": "error"
    },
    {
      "inputs": [
        {
          "internalType": "uint256",
          "name": "tokenId",
          "type": "uint256"
        }
      ],
      "name": "ERC721NonexistentToken",
      "type": "error"
    },
    {
      "inputs": [],
      "name": "FailedCall",
      "type": "error"
    },
    {
      "inputs": [],
      "name": "InvalidInitialization",
      "type": "error"
    },
    {
      "inputs": [],
      "name": "NotInitializing",
      "type": "error"
    },
    {
      "inputs": [],
      "name": "UUPSUnauthorizedCallContext",
      "type": "error"
    },
    {
      "inputs": [
        {
          "internalType": "bytes32",
          "name": "slot",
          "type": "bytes32"
        }
      ],
      "name": "UUPSUnsupportedProxiableUUID",
      "type": "error"
    },
    {
      "anonymous": false,
      "inputs": [
        {
          "indexed": true,
          "internalType": "address",
          "name": "owner",
          "type": "address"
        },
        {
          "indexed": true,
          "internalType": "address",
          "name": "approved",
          "type": "address"
        },
        {
          "indexed": true,
          "internalType": "uint256",
          "name": "tokenId",
          "type": "uint256"
        }
      ],
      "name": "Approval",
      "type": "event"
    },
    {
      "anonymous": false,
      "inputs": [
        {
          "indexed": true,
          "internalType": "address",
          "name": "owner",
          "type": "address"
        },
        {
          "indexed": true,
          "internalType": "address",
          "name": "operator",
          "type": "address"
        },
        {
          "indexed": false,
          "internalType": "bool",
          "name": "approved",
          "type": "bool"
        }
      ],
      "name": "ApprovalForAll",
      "type": "event"
    },
    {
      "anonymous": false,
      "inputs": [],
      "name": "EIP712DomainChanged",
      "type": "event"
    },
    {
      "anonymous": false,
      "inputs": [
        {
          "indexed": false,
          "internalType": "uint64",
          "name": "version",
          "type": "uint64"
        }
      ],
      "name": "Initialized",
      "type": "event"
    },
    {
      "anonymous": false,
      "inputs": [
        {
          "indexed": true,
          "internalType": "bytes32",
          "name": "role",
          "type": "bytes32"
        },
        {
          "indexed": true,
          "internalType": "bytes32",
          "name": "previousAdminRole",
          "type": "bytes32"
        },
        {
          "indexed": true,
          "internalType": "bytes32",
          "name": "newAdminRole",
          "type": "bytes32"
        }
      ],
      "name": "RoleAdminChanged",
      "type": "event"
    },
    {
      "anonymous": false,
      "inputs": [
        {
          "indexed": true,
          "internalType": "bytes32",
          "name": "role",
          "type": "bytes32"
        },
        {
          "indexed": true,
          "internalType": "address",
          "name": "account",
          "type": "address"
        },
        {
          "indexed": true,
          "internalType": "address",
          "name": "sender",
          "type": "address"
        }
      ],
      "name": "RoleGranted",
      "type": "event"
    },
    {
      "anonymous": false,
      "inputs": [
        {
          "indexed": true,
          "internalType": "bytes32",
          "name": "role",
          "type": "bytes32"
        },
        {
          "indexed": true,
          "internalType": "address",
          "name": "account",
          "type": "address"
        },
        {
          "indexed": true,
          "internalType": "address",
          "name": "sender",
          "type": "address"
        }
      ],
      "name": "RoleRevoked",
      "type": "event"
    },
    {
      "anonymous": false,
      "inputs": [
        {
          "indexed": true,
          "internalType": "address",
          "name": "from",
          "type": "address"
        },
        {
          "indexed": true,
          "internalType": "address",
          "name": "to",
          "type": "address"
        },
        {
          "indexed": true,
          "internalType": "uint256",
          "name": "tokenId",
          "type": "uint256"
        }
      ],
      "name": "Transfer",
      "type": "event"
    },
    {
      "anonymous": false,
      "inputs": [
        {
          "indexed": true,
          "internalType": "address",
          "name": "implementation",
          "type": "address"
        }
      ],
      "name": "Upgraded",
      "type": "event"
    },
    {
      "inputs": [],
      "name": "DEFAULT_ADMIN_ROLE",
      "outputs": [
        {
          "internalType": "bytes32",
          "name": "",
          "type": "bytes32"
        }
      ],
      "stateMutability": "view",
      "type": "function"
    },
    {
      "inputs": [],
      "name": "MINTER_ROLE",
      "outputs": [
        {
          "internalType": "bytes32",
          "name": "",
          "type": "bytes32"
        }
      ],
      "stateMutability": "view",
      "type": "function"
    },
    {
      "inputs": [],
      "name": "UPGRADER_ROLE",
      "outputs": [
        {
          "internalType": "bytes32",
          "name": "",
          "type": "bytes32"
        }
      ],
      "stateMutability": "view",
      "type": "function"
    },
    {
      "inputs": [],
      "name": "UPGRADE_INTERFACE_VERSION",
      "outputs": [
        {
          "internalType": "string",
          "name": "",
          "type": "string"
        }
      ],
      "stateMutability": "view",
      "type": "function"
    },
    {
      "inputs": [
        {
          "internalType": "address",
          "name": "to",
          "type": "address"
        },
        {
          "internalType": "uint256",
          "name": "tokenId",
          "type": "uint256"
        }
      ],
      "name": "approve",
      "outputs": [],
      "stateMutability": "nonpayable",
      "type": "function"
    },
    {
      "inputs": [
        {
          "internalType": "address",
          "name": "owner",
          "type": "address"
        }
      ],
      "name": "balanceOf",
      "outputs": [
        {
          "internalType": "uint256",
          "name": "",
          "type": "uint256"
        }
      ],
      "stateMutability": "view",
      "type": "function"
    },
    {
      "inputs": [],
      "name": "eip712Domain",
      "outputs": [
        {
          "internalType": "bytes1",
          "name": "fields",
          "type": "bytes1"
        },
        {
          "internalType": "string",
          "name": "name",
          "type": "string"
        },
        {
          "internalType": "string",
          "name": "version",
          "type": "string"
        },
        {
          "internalType": "uint256",
          "name": "chainId",
          "type": "uint256"
        },
        {
          "internalType": "address",
          "name": "verifyingContract",
          "type": "address"
        },
        {
          "internalType": "bytes32",
          "name": "salt",
          "type": "bytes32"
        },
        {
          "internalType": "uint256[]",
          "name": "extensions",
          "type": "uint256[]"
        }
      ],
      "stateMutability": "view",
      "type": "function"
    },
    {
      "inputs": [
        {
          "internalType": "uint256",
          "name": "tokenId",
          "type": "uint256"
        }
      ],
      "name": "getApproved",
      "outputs": [
        {
          "internalType": "address",
          "name": "",
          "type": "address"
        }
      ],
      "stateMutability": "view",
      "type": "function"
    },
    {
      "inputs": [
        {
          "internalType": "bytes32",
          "name": "role",
          "type": "bytes32"
        }
      ],
      "name": "getRoleAdmin",
      "outputs": [
        {
          "internalType": "bytes32",
          "name": "",
          "type": "bytes32"
        }
      ],
      "stateMutability": "view",
      "type": "function"
    },
    {
      "inputs": [
        {
          "internalType": "bytes32",
          "name": "role",
          "type": "bytes32"
        },
        {
          "internalType": "address",
          "name": "account",
          "type": "address"
        }
      ],
      "name": "grantRole",
      "outputs": [],
      "stateMutability": "nonpayable",
      "type": "function"
    },
    {
      "inputs": [
        {
          "internalType": "bytes32",
          "name": "role",
          "type": "bytes32"
        },
        {
          "internalType": "address",
          "name": "account",
          "type": "address"
        }
      ],
      "name": "hasRole",
      "outputs": [
        {
          "internalType": "bool",
          "name": "",
          "type": "bool"
        }
      ],
      "stateMutability": "view",
      "type": "function"
    },
    {
      "inputs": [
        {
          "internalType": "string",
          "name": "name_",
          "type": "string"
        },
        {
          "internalType": "string",
          "name": "symbol_",
          "type": "string"
        }
      ],
      "name": "initialize",
      "outputs": [],
      "stateMutability": "nonpayable",
      "type": "function"
    },
    {
      "inputs": [
        {
          "internalType": "address",
          "name": "owner",
          "type": "address"
        },
        {
          "internalType": "address",
          "name": "operator",
          "type": "address"
        }
      ],
      "name": "isApprovedForAll",
      "outputs": [
        {
          "internalType": "bool",
          "name": "",
          "type": "bool"
        }
      ],
      "stateMutability": "view",
      "type": "function"
    },
    {
      "inputs": [],
      "name": "name",
      "outputs": [
        {
          "internalType": "string",
          "name": "",
          "type": "string"
        }
      ],
      "stateMutability": "view",
      "type": "function"
    },
    {
      "inputs": [
        {
          "internalType": "uint256",
          "name": "tokenId",
          "type": "uint256"
        }
      ],
      "name": "nonce",
      "outputs": [
        {
          "internalType": "uint256",
          "name": "",
          "type": "uint256"
        }
      ],
      "stateMutability": "view",
      "type": "function"
    },
    {
      "inputs": [
        {
          "internalType": "uint256",
          "name": "tokenId",
          "type": "uint256"
        }
      ],
      "name": "ownerOf",
      "outputs": [
        {
          "internalType": "address",
          "name": "",
          "type": "address"
        }
      ],
      "stateMutability": "view",
      "type": "function"
    },
    {
      "inputs": [
        {
          "internalType": "address",
          "name": "spender",
          "type": "address"
        },
        {
          "internalType": "uint256",
          "name": "tokenId",
          "type": "uint256"
        },
        {
          "internalType": "uint256",
          "name": "deadline",
          "type": "uint256"
        },
        {
          "internalType": "uint8",
          "name": "v",
          "type": "uint8"
        },
        {
          "internalType": "bytes32",
          "name": "r",
          "type": "bytes32"
        },
        {
          "internalType": "bytes32",
          "name": "s",
          "type": "bytes32"
        }
      ],
      "name": "permit",
      "outputs": [],
      "stateMutability": "nonpayable",
      "type": "function"
    },
    {
      "inputs": [],
      "name": "proxiableUUID",
      "outputs": [
        {
          "internalType": "bytes32",
          "name": "",
          "type": "bytes32"
        }
      ],
      "stateMutability": "view",
      "type": "function"
    },
    {
      "inputs": [
        {
          "internalType": "bytes32",
          "name": "role",
          "type": "bytes32"
        },
        {
          "internalType": "address",
          "name": "callerConfirmation",
          "type": "address"
        }
      ],
      "name": "renounceRole",
      "outputs": [],
      "stateMutability": "nonpayable",
      "type": "function"
    },
    {
      "inputs": [
        {
          "internalType": "bytes32",
          "name": "role",
          "type": "bytes32"
        },
        {
          "internalType": "address",
          "name": "account",
          "type": "address"
        }
      ],
      "name": "revokeRole",
      "outputs": [],
      "stateMutability": "nonpayable",
      "type": "function"
    },
    {
      "inputs": [
        {
          "internalType": "address",
          "name": "to",
          "type": "address"
        }
      ],
      "name": "safeMint",
      "outputs": [],
      "stateMutability": "nonpayable",
      "type": "function"
    },
    {
      "inputs": [
        {
          "internalType": "address",
          "name": "from",
          "type": "address"
        },
        {
          "internalType": "address",
          "name": "to",
          "type": "address"
        },
        {
          "internalType": "uint256",
          "name": "tokenId",
          "type": "uint256"
        }
      ],
      "name": "safeTransferFrom",
      "outputs": [],
      "stateMutability": "nonpayable",
      "type": "function"
    },
    {
      "inputs": [
        {
          "internalType": "address",
          "name": "from",
          "type": "address"
        },
        {
          "internalType": "address",
          "name": "to",
          "type": "address"
        },
        {
          "internalType": "uint256",
          "name": "tokenId",
          "type": "uint256"
        },
        {
          "internalType": "bytes",
          "name": "data",
          "type": "bytes"
        }
      ],
      "name": "safeTransferFrom",
      "outputs": [],
      "stateMutability": "nonpayable",
      "type": "function"
    },
    {
      "inputs": [
        {
          "internalType": "address",
          "name": "operator",
          "type": "address"
        },
        {
          "internalType": "bool",
          "name": "approved",
          "type": "bool"
        }
      ],
      "name": "setApprovalForAll",
      "outputs": [],
      "stateMutability": "nonpayable",
      "type": "function"
    },
    {
      "inputs": [
        {
          "internalType": "uint256",
          "name": "tokenId",
          "type": "uint256"
        },
        {
          "internalType": "string",
          "name": "tokenURI_",
          "type": "string"
        }
      ],
      "name": "setTokenURI",
      "outputs": [],
      "stateMutability": "nonpayable",
      "type": "function"
    },
    {
      "inputs": [
        {
          "internalType": "bytes4",
          "name": "interfaceId",
          "type": "bytes4"
        }
      ],
      "name": "supportsInterface",
      "outputs": [
        {
          "internalType": "bool",
          "name": "",
          "type": "bool"
        }
      ],
      "stateMutability": "view",
      "type": "function"
    },
    {
      "inputs": [],
      "name": "symbol",
      "outputs": [
        {
          "internalType": "string",
          "name": "",
          "type": "string"
        }
      ],
      "stateMutability": "view",
      "type": "function"
    },
    {
      "inputs": [
        {
          "internalType": "uint256",
          "name": "tokenId",
          "type": "uint256"
        }
      ],
      "name": "tokenURI",
      "outputs": [
        {
          "internalType": "string",
          "name": "",
          "type": "string"
        }
      ],
      "stateMutability": "view",
      "type": "function"
    },
    {
      "inputs": [
        {
          "internalType": "address",
          "name": "from",
          "type": "address"
        },
        {
          "internalType": "address",
          "name": "to",
          "type": "address"
        },
        {
          "internalType": "uint256",
          "name": "tokenId",
          "type": "uint256"
        }
      ],
      "name": "transferFrom",
      "outputs": [],
      "stateMutability": "nonpayable",
      "type": "function"
    },
    {
      "inputs": [
        {
          "internalType": "address",
          "name": "newImplementation",
          "type": "address"
        },
        {
          "internalType": "bytes",
          "name": "data",
          "type": "bytes"
        }
      ],
      "name": "upgradeToAndCall",
      "outputs": [],
      "stateMutability": "payable",
      "type": "function"
    }
  ],
  "bytecode": "0x60a06040523060805234801561001457600080fd5b5061001d610022565b6100d4565b7ff0c57e16840df040f15088dc2f81fe391c3923bec73e23a9662efc9c229c6a00805468010000000000000000900460ff16156100725760405163f92ee8a960e01b815260040160405180910390fd5b80546001600160401b03908116146100d15780546001600160401b0319166001600160401b0390811782556040519081527fc7f505b2f371ae2175ee4913f4499e1f2633a7b5936321eed1cdaeb6115181d29060200160405180910390a15b50565b6080516126446100fd600039600081816111a2015281816111cb015261132e01526126446000f3fe6080604052600436106101cd5760003560e01c806370a08231116100f7578063ad3cb1cc11610095578063d539139311610064578063d539139314610549578063d547741f1461057d578063e985e9c51461059d578063f72c0d8b146105bd57600080fd5b8063ad3cb1cc146104ab578063b88d4fde146104dc578063c87b56dd146104fc578063ce03fdab1461051c57600080fd5b806391d14854116100d157806391d148541461044157806395d89b4114610461578063a217fddf14610476578063a22cb4651461048b57600080fd5b806370a08231146103d95780637ac2ff7b146103f957806384b0196e1461041957600080fd5b80632f2ff15d1161016f5780634cd88b761161013e5780634cd88b76146103715780634f1ef2861461039157806352d1902d146103a45780636352211e146103b957600080fd5b80632f2ff15d146102f157806336568abe1461031157806340d097c31461033157806342842e0e1461035157600080fd5b8063095ea7b3116101ab578063095ea7b314610261578063162094c41461028357806323b872dd146102a3578063248a9ca3146102c357600080fd5b806301ffc9a7146101d257806306fdde0314610207578063081812fc14610229575b600080fd5b3480156101de57600080fd5b506101f26101ed366004611ec0565b6105f1565b60405190151581526020015b60405180910390f35b34801561021357600080fd5b5061021c610602565b6040516101fe9190611f2d565b34801561023557600080fd5b50610249610244366004611f40565b6106a6565b6040516001600160a01b0390911681526020016101fe565b34801561026d57600080fd5b5061028161027c366004611f75565b6106bb565b005b34801561028f57600080fd5b5061028161029e36600461204b565b6106ca565b3480156102af57600080fd5b506102816102be366004612092565b6106f3565b3480156102cf57600080fd5b506102e36102de366004611f40565b61077d565b6040519081526020016101fe565b3480156102fd57600080fd5b5061028161030c3660046120cf565b61079f565b34801561031d57600080fd5b5061028161032c3660046120cf565b6107bb565b34801561033d57600080fd5b5061028161034c3660046120fb565b6107f3565b34801561035d57600080fd5b5061028161036c366004612092565b61083e565b34801561037d57600080fd5b5061028161038c366004612116565b610859565b61028161039f366004612169565b610a00565b3480156103b057600080fd5b506102e3610a1b565b3480156103c557600080fd5b506102496103d4366004611f40565b610a38565b3480156103e557600080fd5b506102e36103f43660046120fb565b610a43565b34801561040557600080fd5b506102816104143660046121a1565b610a9f565b34801561042557600080fd5b5061042e610c20565b6040516101fe9796959493929190612201565b34801561044d57600080fd5b506101f261045c3660046120cf565b610ccc565b34801561046d57600080fd5b5061021c610d04565b34801561048257600080fd5b506102e3600081565b34801561049757600080fd5b506102816104a6366004612299565b610d43565b3480156104b757600080fd5b5061021c604051806040016040528060058152602001640352e302e360dc1b81525081565b3480156104e857600080fd5b506102816104f73660046122d5565b610d4e565b34801561050857600080fd5b5061021c610517366004611f40565b610d66565b34801561052857600080fd5b506102e3610537366004611f40565b60009081526020819052604090205490565b34801561055557600080fd5b506102e37f9f2df0fed2c77648de5860a4cc508cd0818c85b8b8a1ab4ceeef8d981c8956a681565b34801561058957600080fd5b506102816105983660046120cf565b610e08565b3480156105a957600080fd5b506101f26105b836600461233d565b610e24565b3480156105c957600080fd5b506102e37f189ab7a9244df0848122154315af71fe140f3db0fe014031783b0946b8c9d2e381565b60006105fc82610e71565b92915050565b60008051602061258f833981519152805460609190819061062290612367565b80601f016020809104026020016040519081016040528092919081815260200182805461064e90612367565b801561069b5780601f106106705761010080835404028352916020019161069b565b820191906000526020600020905b81548152906001019060200180831161067e57829003601f168201915b505050505091505090565b60006106b182610e96565b506105fc82610ece565b6106c6828233610f08565b5050565b60006106d581610f15565b60008381526001602052604090206106ed83826123e8565b50505050565b6001600160a01b03821661072257604051633250574960e11b8152600060048201526024015b60405180910390fd5b600061072f838333610f22565b9050836001600160a01b0316816001600160a01b0316146106ed576040516364283d7b60e01b81526001600160a01b0380861660048301526024820184905282166044820152606401610719565b60009081526000805160206125ef833981519152602052604090206001015490565b6107a88261077d565b6107b181610f15565b6106ed838361102e565b6001600160a01b03811633146107e45760405163334bd91960e11b815260040160405180910390fd5b6107ee82826110d3565b505050565b7f9f2df0fed2c77648de5860a4cc508cd0818c85b8b8a1ab4ceeef8d981c8956a661081d81610f15565b60028054908190600061082f836124bd565b91905055506107ee838261114f565b6107ee83838360405180602001604052806000815250610d4e565b7ff0c57e16840df040f15088dc2f81fe391c3923bec73e23a9662efc9c229c6a008054600160401b810460ff16159067ffffffffffffffff1660008115801561089f5750825b905060008267ffffffffffffffff1660011480156108bc5750303b155b9050811580156108ca575080155b156108e85760405163f92ee8a960e01b815260040160405180910390fd5b845467ffffffffffffffff19166001178555831561091257845460ff60401b1916600160401b1785555b61091c8787611169565b61093f87604051806040016040528060018152602001603160f81b81525061117b565b61094761118d565b61094f61118d565b61095a60003361102e565b506109857f189ab7a9244df0848122154315af71fe140f3db0fe014031783b0946b8c9d2e33361102e565b506109b07f9f2df0fed2c77648de5860a4cc508cd0818c85b8b8a1ab4ceeef8d981c8956a63361102e565b5083156109f757845460ff60401b19168555604051600181527fc7f505b2f371ae2175ee4913f4499e1f2633a7b5936321eed1cdaeb6115181d29060200160405180910390a15b50505050505050565b610a08611197565b610a118261123c565b6106c68282611266565b6000610a25611323565b506000805160206125cf83398151915290565b60006105fc82610e96565b600060008051602061258f8339815191526001600160a01b038316610a7e576040516322718ad960e21b815260006004820152602401610719565b6001600160a01b039092166000908152600390920160205250604090205490565b83421115610aef5760405162461bcd60e51b815260206004820152601860248201527f5065726d69743a206578706972656420646561646c696e6500000000000000006044820152606401610719565b6000610afa86610a38565b6000878152602081815260408083205481517f49ecf333e5b8c95c40fdafc95c1ad136e8914a8fb55e9dc8bb01eaa83a2df9ad818501526001600160a01b038d1681840152606081018c90526080810182905260a08082018c90528351808303909101815260c0909101909252815191909201209293509190610b7c8261136c565b90506000610b8c82898989611399565b9050846001600160a01b0316816001600160a01b031614610bef5760405162461bcd60e51b815260206004820152601960248201527f5065726d69743a20696e76616c6964207369676e6174757265000000000000006044820152606401610719565b610bfa8460016124d6565b60008b815260208190526040902055610c138b8b6106bb565b5050505050505050505050565b600060608082808083816000805160206125af8339815191528054909150158015610c4d57506001810154155b610c915760405162461bcd60e51b81526020600482015260156024820152741152540dcc4c8e88155b9a5b9a5d1a585b1a5e9959605a1b6044820152606401610719565b610c996113c7565b610ca1611406565b60408051600080825260208201909252600f60f81b9c939b5091995046985030975095509350915050565b60009182526000805160206125ef833981519152602090815260408084206001600160a01b0393909316845291905290205460ff1690565b7f80bb2b638cc20bc4d0a60d66940f3ab4a00c1d7b313497ca82fb0b4ab0079301805460609160008051602061258f8339815191529161062290612367565b6106c6338383611445565b610d598484846106f3565b6106ed33858585856114f6565b6000818152600160205260409020805460609190610d8390612367565b80601f0160208091040260200160405190810160405280929190818152602001828054610daf90612367565b8015610dfc5780601f10610dd157610100808354040283529160200191610dfc565b820191906000526020600020905b815481529060010190602001808311610ddf57829003601f168201915b50505050509050919050565b610e118261077d565b610e1a81610f15565b6106ed83836110d3565b6001600160a01b0391821660009081527f80bb2b638cc20bc4d0a60d66940f3ab4a00c1d7b313497ca82fb0b4ab00793056020908152604080832093909416825291909152205460ff1690565b60006001600160e01b03198216637965db0b60e01b14806105fc57506105fc82611621565b600080610ea283611671565b90506001600160a01b0381166105fc57604051637e27328960e01b815260048101849052602401610719565b60009081527f80bb2b638cc20bc4d0a60d66940f3ab4a00c1d7b313497ca82fb0b4ab007930460205260409020546001600160a01b031690565b6107ee83838360016116ab565b610f1f81336117c1565b50565b600060008051602061258f83398151915281610f3d85611671565b90506001600160a01b03841615610f5957610f598185876117fa565b6001600160a01b03811615610f9957610f766000866000806116ab565b6001600160a01b0381166000908152600383016020526040902080546000190190555b6001600160a01b03861615610fca576001600160a01b03861660009081526003830160205260409020805460010190555b600085815260028301602052604080822080546001600160a01b0319166001600160a01b038a811691821790925591518893918516917fddf252ad1be2c89b69c2b068fc378daa952ba7f163c4a11628f55a4df523b3ef91a49150505b9392505050565b60006000805160206125ef8339815191526110498484610ccc565b6110c9576000848152602082815260408083206001600160a01b03871684529091529020805460ff1916600117905561107f3390565b6001600160a01b0316836001600160a01b0316857f2f8788117e7eff1d82e926ec794901d17c78024a50270940304540a733656f0d60405160405180910390a460019150506105fc565b60009150506105fc565b60006000805160206125ef8339815191526110ee8484610ccc565b156110c9576000848152602082815260408083206001600160a01b0387168085529252808320805460ff1916905551339287917ff6391f5c32d9c69d2a47ea670b442974b53935d1edc7fd64eb21e047a839171b9190a460019150506105fc565b6106c682826040518060200160405280600081525061185e565b611171611876565b6106c682826118bf565b611183611876565b6106c682826118f0565b611195611876565b565b306001600160a01b037f000000000000000000000000000000000000000000000000000000000000000016148061121e57507f00000000000000000000000000000000000000000000000000000000000000006001600160a01b03166112126000805160206125cf833981519152546001600160a01b031690565b6001600160a01b031614155b156111955760405163703e46dd60e11b815260040160405180910390fd5b7f189ab7a9244df0848122154315af71fe140f3db0fe014031783b0946b8c9d2e36106c681610f15565b816001600160a01b03166352d1902d6040518163ffffffff1660e01b8152600401602060405180830381865afa9250505080156112c0575060408051601f3d908101601f191682019092526112bd918101906124e9565b60015b6112e857604051634c9c8ce360e01b81526001600160a01b0383166004820152602401610719565b6000805160206125cf833981519152811461131957604051632a87526960e21b815260048101829052602401610719565b6107ee8383611951565b306001600160a01b037f000000000000000000000000000000000000000000000000000000000000000016146111955760405163703e46dd60e11b815260040160405180910390fd5b60006105fc6113796119a7565b8360405161190160f01b8152600281019290925260228201526042902090565b6000806000806113ab888888886119b6565b9250925092506113bb8282611a85565b50909695505050505050565b7fa16a46d94261c7517cc8ff89f61c0ce93598e3c849801011dee649a6a557d10280546060916000805160206125af8339815191529161062290612367565b7fa16a46d94261c7517cc8ff89f61c0ce93598e3c849801011dee649a6a557d10380546060916000805160206125af8339815191529161062290612367565b60008051602061258f8339815191526001600160a01b03831661148657604051630b61174360e31b81526001600160a01b0384166004820152602401610719565b6001600160a01b038481166000818152600584016020908152604080832094881680845294825291829020805460ff191687151590811790915591519182527f17307eab39ab6107e8899845ad3d59bd9653f200f220920489ca2b5937696c31910160405180910390a350505050565b6001600160a01b0383163b1561161a57604051630a85bd0160e11b81526001600160a01b0384169063150b7a0290611538908890889087908790600401612502565b6020604051808303816000875af1925050508015611573575060408051601f3d908101601f191682019092526115709181019061253f565b60015b6115dc573d8080156115a1576040519150601f19603f3d011682016040523d82523d6000602084013e6115a6565b606091505b5080516000036115d457604051633250574960e11b81526001600160a01b0385166004820152602401610719565b805181602001fd5b6001600160e01b03198116630a85bd0160e11b1461161857604051633250574960e11b81526001600160a01b0385166004820152602401610719565b505b5050505050565b60006001600160e01b031982166380ac58cd60e01b148061165257506001600160e01b03198216635b5e139f60e01b145b806105fc57506301ffc9a760e01b6001600160e01b03198316146105fc565b60009081527f80bb2b638cc20bc4d0a60d66940f3ab4a00c1d7b313497ca82fb0b4ab007930260205260409020546001600160a01b031690565b60008051602061258f83398151915281806116ce57506001600160a01b03831615155b156117905760006116de85610e96565b90506001600160a01b0384161580159061170a5750836001600160a01b0316816001600160a01b031614155b801561171d575061171b8185610e24565b155b156117465760405163a9fbf51f60e01b81526001600160a01b0385166004820152602401610719565b821561178e5784866001600160a01b0316826001600160a01b03167f8c5be1e5ebec7d5bd14f71427d1e84f3dd0314c0f7b2291e5b200ac8c7c3b92560405160405180910390a45b505b600093845260040160205250506040902080546001600160a01b0319166001600160a01b0392909216919091179055565b6117cb8282610ccc565b6106c65760405163e2517d3f60e01b81526001600160a01b038216600482015260248101839052604401610719565b611805838383611b3e565b6107ee576001600160a01b03831661183357604051637e27328960e01b815260048101829052602401610719565b60405163177e802f60e01b81526001600160a01b038316600482015260248101829052604401610719565b6118688383611ba4565b6107ee3360008585856114f6565b7ff0c57e16840df040f15088dc2f81fe391c3923bec73e23a9662efc9c229c6a0054600160401b900460ff1661119557604051631afcd79f60e31b815260040160405180910390fd5b6118c7611876565b60008051602061258f833981519152806118e184826123e8565b50600181016106ed83826123e8565b6118f8611876565b6000805160206125af8339815191527fa16a46d94261c7517cc8ff89f61c0ce93598e3c849801011dee649a6a557d10261193284826123e8565b506003810161194183826123e8565b5060008082556001909101555050565b61195a82611c09565b6040516001600160a01b038316907fbc7cd75a20ee27fd9adebab32041f755214dbc6bffa90cc0225b39da2e5c2d3b90600090a280511561199f576107ee8282611c6e565b6106c6611ce4565b60006119b1611d03565b905090565b600080807f7fffffffffffffffffffffffffffffff5d576e7357a4501ddfe92f46681b20a08411156119f15750600091506003905082611a7b565b604080516000808252602082018084528a905260ff891692820192909252606081018790526080810186905260019060a0016020604051602081039080840390855afa158015611a45573d6000803e3d6000fd5b5050604051601f1901519150506001600160a01b038116611a7157506000925060019150829050611a7b565b9250600091508190505b9450945094915050565b6000826003811115611a9957611a9961255c565b03611aa2575050565b6001826003811115611ab657611ab661255c565b03611ad45760405163f645eedf60e01b815260040160405180910390fd5b6002826003811115611ae857611ae861255c565b03611b095760405163fce698f760e01b815260048101829052602401610719565b6003826003811115611b1d57611b1d61255c565b036106c6576040516335e2f38360e21b815260048101829052602401610719565b60006001600160a01b03831615801590611b9c5750826001600160a01b0316846001600160a01b03161480611b785750611b788484610e24565b80611b9c5750826001600160a01b0316611b9183610ece565b6001600160a01b0316145b949350505050565b6001600160a01b038216611bce57604051633250574960e11b815260006004820152602401610719565b6000611bdc83836000610f22565b90506001600160a01b038116156107ee576040516339e3563760e11b815260006004820152602401610719565b806001600160a01b03163b600003611c3f57604051634c9c8ce360e01b81526001600160a01b0382166004820152602401610719565b6000805160206125cf83398151915280546001600160a01b0319166001600160a01b0392909216919091179055565b6060600080846001600160a01b031684604051611c8b9190612572565b600060405180830381855af49150503d8060008114611cc6576040519150601f19603f3d011682016040523d82523d6000602084013e611ccb565b606091505b5091509150611cdb858383611d77565b95945050505050565b34156111955760405163b398979f60e01b815260040160405180910390fd5b60007f8b73c3c69bb8fe3d512ecc4cf759cc79239f7b179b0ffacaa9a75d522b39400f611d2e611dd3565b611d36611e3d565b60408051602081019490945283019190915260608201524660808201523060a082015260c00160405160208183030381529060405280519060200120905090565b606082611d8c57611d8782611e81565b611027565b8151158015611da357506001600160a01b0384163b155b15611dcc57604051639996b31560e01b81526001600160a01b0385166004820152602401610719565b5080611027565b60006000805160206125af83398151915281611ded6113c7565b805190915015611e0557805160209091012092915050565b81548015611e14579392505050565b7fc5d2460186f7233c927e7db2dcc703c0e500b653ca82273b7bfad8045d85a470935050505090565b60006000805160206125af83398151915281611e57611406565b805190915015611e6f57805160209091012092915050565b60018201548015611e14579392505050565b805115611e915780518082602001fd5b60405163d6bda27560e01b815260040160405180910390fd5b6001600160e01b031981168114610f1f57600080fd5b600060208284031215611ed257600080fd5b813561102781611eaa565b60005b83811015611ef8578181015183820152602001611ee0565b50506000910152565b60008151808452611f19816020860160208601611edd565b601f01601f19169290920160200192915050565b6020815260006110276020830184611f01565b600060208284031215611f5257600080fd5b5035919050565b80356001600160a01b0381168114611f7057600080fd5b919050565b60008060408385031215611f8857600080fd5b611f9183611f59565b946020939093013593505050565b634e487b7160e01b600052604160045260246000fd5b600082601f830112611fc657600080fd5b81356020830160008067ffffffffffffffff841115611fe757611fe7611f9f565b50604051601f19601f85018116603f0116810181811067ffffffffffffffff8211171561201657612016611f9f565b60405283815290508082840187101561202e57600080fd5b838360208301376000602085830101528094505050505092915050565b6000806040838503121561205e57600080fd5b82359150602083013567ffffffffffffffff81111561207c57600080fd5b61208885828601611fb5565b9150509250929050565b6000806000606084860312156120a757600080fd5b6120b084611f59565b92506120be60208501611f59565b929592945050506040919091013590565b600080604083850312156120e257600080fd5b823591506120f260208401611f59565b90509250929050565b60006020828403121561210d57600080fd5b61102782611f59565b6000806040838503121561212957600080fd5b823567ffffffffffffffff81111561214057600080fd5b61214c85828601611fb5565b925050602083013567ffffffffffffffff81111561207c57600080fd5b6000806040838503121561217c57600080fd5b61218583611f59565b9150602083013567ffffffffffffffff81111561207c57600080fd5b60008060008060008060c087890312156121ba57600080fd5b6121c387611f59565b95506020870135945060408701359350606087013560ff811681146121e757600080fd5b9598949750929560808101359460a0909101359350915050565b60ff60f81b8816815260e06020820152600061222060e0830189611f01565b82810360408401526122328189611f01565b606084018890526001600160a01b038716608085015260a0840186905283810360c08501528451808252602080870193509091019060005b8181101561228857835183526020938401939092019160010161226a565b50909b9a5050505050505050505050565b600080604083850312156122ac57600080fd5b6122b583611f59565b9150602083013580151581146122ca57600080fd5b809150509250929050565b600080600080608085870312156122eb57600080fd5b6122f485611f59565b935061230260208601611f59565b925060408501359150606085013567ffffffffffffffff81111561232557600080fd5b61233187828801611fb5565b91505092959194509250565b6000806040838503121561235057600080fd5b61235983611f59565b91506120f260208401611f59565b600181811c9082168061237b57607f821691505b60208210810361239b57634e487b7160e01b600052602260045260246000fd5b50919050565b601f8211156107ee57806000526020600020601f840160051c810160208510156123c85750805b601f840160051c820191505b8181101561161a57600081556001016123d4565b815167ffffffffffffffff81111561240257612402611f9f565b612416816124108454612367565b846123a1565b6020601f82116001811461244a57600083156124325750848201515b600019600385901b1c1916600184901b17845561161a565b600084815260208120601f198516915b8281101561247a578785015182556020948501946001909201910161245a565b50848210156124985786840151600019600387901b60f8161c191681555b50505050600190811b01905550565b634e487b7160e01b600052601160045260246000fd5b6000600182016124cf576124cf6124a7565b5060010190565b808201808211156105fc576105fc6124a7565b6000602082840312156124fb57600080fd5b5051919050565b6001600160a01b038581168252841660208201526040810183905260806060820181905260009061253590830184611f01565b9695505050505050565b60006020828403121561255157600080fd5b815161102781611eaa565b634e487b7160e01b600052602160045260246000fd5b60008251612584818460208701611edd565b919091019291505056fe80bb2b638cc20bc4d0a60d66940f3ab4a00c1d7b313497ca82fb0b4ab0079300a16a46d94261c7517cc8ff89f61c0ce93598e3c849801011dee649a6a557d100360894a13ba1a3210667c828492db98dca3e2076cc3735a920a3ca505d382bbc02dd7bc7dec4dceedda775e58dd541e08a116c6c53815c0bd028192f7b626800a26469706673582212207ec22409b43ac4cbc5ef657c69b007e3076578fb3fb28adea78f534b2bff19d264736f6c634300081c0033",
  "linkReferences": {},
  "deployedLinkReferences": {}
}